:100000000C946B010C949C010C949C010C949C012D
:100010000C949C010C949C010C949C010C949C01EC
:100020000C949C010C94F5080C94F5080C94F508BC
:100030000C949C010C949C010C949C010C949C01CC
:100040000C949C010C949C010C949C010C949C01BC
:100050000C949C010C949C010C949C010C945805EC
:100060000C949C010C94BF080C9495080C949C0172
:100070000C949C010C949C010C949C010C949C018C
:100080000C949C010C949C010C949C010C949C017C
:100090000C949C010C949C010C949C010C949C016C
:1000A0000C949C010C949C010C949C010C949C015C
:1000B0000C949C010C949C010C949C010C949C014C
:1000C0000C949C010C949C010C949C010C949C013C
:1000D0000C949C010C949C010C949C010C949C012C
:1000E0000C949C01CD01D001BF01C301C7010702DF
:1000F000D401D801DE01E201E601EC01F001F401D6
:100100000702FA01FE010202B504BA04C504C504DF
:10011000C504C504CA04CC04CF040C94EF060C94A7
:10012000C3010C94C5040C94BF010C948F070C946C
:10013000CF040C949D090C94BE060C94E2010C941F
:10014000FC070C9414080C94BA040C94E6010C946B
:10015000C10F0C94F4010C94CA040C94D4010C94B7
:10016000A7070C9436080C9426070C94B5040C943D
:10017000F2100C94F0010C94E1060C94DE010C9446
:10018000CD010C946D070C94FE010C94D8010C94D5
:10019000D0010C94CD060C94CC040C94C7010C94A3
:1001A000FA010C9407020C9402020C94A8070C9418
:1001B000EC0100000A0B02090C0D0E0807030401F4
:1001C000000000000000000000000000000000002F
:1001D00000000000000000000000000000001211FC
:1001E00010000000000000000000000000000000FF
:1001F0000000000000000000000022002500280090
:100200002B002E003100340002010000050108011E
:100210000B0100002100240027002A002D003000DF
:10022000330001010000040107010A010000200061
:100230002300260029002C002F00320000010000BE
:100240000301060109010505050507050808080859
:10025000020202020A0A080804040404010101015E
:100260000101010103030303030303030407070759
:100270000C0C0C0C0C0C0C0C0202020206060606FE
:10028000060606060B0B0B0B0B0B0B0B01021020CB
:1002900020080810204010204080020102010804BC
:1002A0000201010204081020408080402010080450
:1002B00002018004020180402010080402010804A9
:1002C00002010102040810204080010204081020ED
:1002D0004080C10FF21011241FBECFEFD1E2DEBF6C
:1002E000CDBF00E00CBF27E0AEEEB5E001C01D922F
:1002F000AE34B207E1F715E0A0E0B2E0E2EFF7E2DA
:1003000000E00BBF02C007900D92AE3EB107D9F7D7
:1003100011E0CAE6D1E000E006C021970109802F74
:10032000FE010E949711C936D10780E00807A9F79E
:100330000E94C8090C94E7130C940000362F90E03B
:10034000FC01EE54FE4F4491FC01E457FD4F249113
:10035000FC01EA5BFD4F9491992309F46BC044239F
:1003600009F455C050E0FA013197E231F10508F087
:100370004EC08827EE58FF4F8F4F0C9497118091F5
:1003800080008F7707C0809180008F7D03C08091AF
:100390008000877F809380003AC084B58F7702C049
:1003A00084B58F7D84BD33C08091B0008F7703C04A
:1003B0008091B0008F7D8093B00029C08091900023
:1003C0008F7707C0809190008F7D03C0809190004F
:1003D000877F809390001BC08091A0008F7707C01B
:1003E0008091A0008F7D03C08091A000877F8093C3
:1003F000A0000DC0809120018F7707C0809120015F
:100400008F7D03C080912001877F80932001E92F99
:10041000F0E0EE0FFF1FE850FE4FA591B4918FB7AB
:10042000F894EC91311103C020952E2301C02E2B9E
:100430002C938FBF08953FB7F89480910607909151
:100440000707A0910807B091090726B5A89B05C02A
:100450002F3F19F00196A11DB11D3FBFBA2FA92F43
:10046000982F8827820F911DA11DB11DBC01CD01C0
:1004700042E0660F771F881F991F4A95D1F70895AC
:100480000F931F93CF93DF93EC018881998100979D
:1004900029F02A813B812617370788F48B016F5F8B
:1004A0007F4F0E94E012009761F0998388831B833D
:1004B0000A832C813D81232B11F4FC01108281E001
:1004C00001C080E0DF91CF911F910F9108950097B7
:1004D00069F0FC0101900020E9F73197AF01481B5A
:1004E000590BBC0189EF95E00C949D0980E090E0E8
:1004F0000895CF93DF930E946702EC0182E293E0BC
:100500000E9467028C0F9D1FDF91CF910895DF92AB
:10051000EF92FF920F931F93CF93DF93EC018091A3
:10052000B8069091B906DC01ED91FC9169810190CA
:10053000F081E02D19958091B8069091B906DC0103
:10054000ED91FC910190F081E02D688119958091E9
:10055000B8069091B906DC01ED91FC910190F08113
:10056000E02D6A8119958091B8069091B906DC0159
:10057000ED91FC910190F081E02D6B8119958091B6
:10058000B8069091B906DC01ED91FC910190F081E3
:10059000E02D6C8119958091B8069091B906DC0127
:1005A000ED91FC910190F081E02D6D811995809184
:1005B000B8069091B906DC01ED91FC910190F081B3
:1005C000E02D6E811995EF80F884B2E0EB0EF11CFE
:1005D0008091B8069091B9060F2D1127DC01ED919D
:1005E000FC910190F081E02D602F19958091B80663
:1005F0009091B906DC01ED91FC910190F081E02D24
:100600006E2D19950E0D111D8E81080F111DD12C07
:10061000ED2CF12C2F8138858091B8069091B90688
:10062000DC01ED91FC91E216F30678F4EC0EFD1E70
:100630000190F081E02DD70119966C911995F70181
:100640008185080F111DD394E3CF0190F081E02D37
:10065000612F19958091B8069091B906DC01ED9152
:10066000FC910190F081E02D602FDF91CF911F91DF
:100670000F91FF90EF90DF901994CF92DF92EF925D
:10068000FF920F931F93CF93DF93EC016A017B01DD
:10069000E889F98982E080834115514E6105710531
:1006A000B1F060E079E08DE390E0A70196010E944F
:1006B000751189019A0101501109210931093695F5
:1006C000279517950795980101151041A8F0E8891D
:1006D000F989108260E874E88EE190E0A701960144
:1006E0000E947511DA01C9010197A109B109B695F6
:1006F000A795979587959C01EC85FD853083EE85C0
:10070000FF852083188EEC89FD8986E08083EA8945
:10071000FB89808180618083EA89FB898081886090
:100720008083EA89FB89808180688083EA89FB89EC
:1007300080818F7D8083DF91CF911F910F91FF90FA
:10074000EF90DF90CF9008958F929F92AF92BF92DB
:100750000F931F93CF93DF93CDB7DEB7A1970FB65B
:10076000F894DEBF0FBECDBF19A2423008F44AE0B4
:100770008E010F5D1F4F842E912CA12CB12CA50151
:1007800094010E947511E62FB901CA0101501109A7
:10079000EA3014F4E05D01C0E95CD801EC93232B4E
:1007A000242B252B61F7C8010E946702A1960FB682
:1007B000F894DEBF0FBECDBFDF91CF911F910F9197
:1007C000BF90AF909F908F900895CF93DF93AB0130
:1007D000672B61F4E091F905F091FA050190F08141
:1007E000E02D682F89EF95E0199506C0682F70E01D
:1007F00080E090E00E94A403EC0182E293E00E947A
:1008000067028C0F9D1FDF91CF9108950C946702B2
:10081000CF93DF93FC01448155816081718189EF21
:1008200095E00E949D09EC0182E293E00E9467023C
:100830008C0F9D1FDF91CF910895FC018091F306ED
:100840009091F406892B21F421E0309749F413C0EC
:100850008091EF069091F006309731F421E0FC0191
:100860008081882341F006C0BF010E94D71321E098
:10087000892B09F020E0822F08958F929F92AF92EA
:10088000BF92CF92DF92EF92FF926B017C010E94A8
:100890001B024B015C01C114D104E104F104F1F02D
:1008A0000E941B02DC01CB0188199909AA09BB0926
:1008B000883E9340A105B10570F321E0C21AD1082A
:1008C000E108F10888EE880E83E0981EA11CB11C97
:1008D000C114D104E104F10419F7DDCFFF90EF90CA
:1008E000DF90CF90BF90AF909F908F900895EF9240
:1008F000FF920F931F93CF93DF93EC01E12CF12C28
:1009000000E010E08091B8069091B906DC01ED910D
:10091000FC910084F185E02D1995892B81F461E02B
:1009200070E080E090E00E943D042FEFE21AF20AAE
:1009300048EEE41643E0F40628F38FEF49C08091B7
:10094000B8069091B906DC01ED91FC910284F38523
:10095000E02D1995982F0930110548F5F8018827E1
:10096000EC57FF4F8F4F0C9497119F3E59F618820A
:10097000998328C028813981A901492BCA0199830B
:10098000888381309F4EF1F020C0FE01E00FF11FFF
:10099000908318C09E8316C01F82988713C02F8132
:1009A0003885D901A92BCD0198878F830BC0FE0113
:1009B000E00FF11F80832F813885C80108978217C7
:1009C000930729F00F5F1F4F9DCF8EEF01C080E08E
:1009D000DF91CF911F910F91FF90EF900895CF93EA
:1009E000DF93CDB7DEB7CB54D1090FB6F894DEBF95
:1009F0000FBECDBF92E02B969FAF2B972C968FAF5B
:100A00002C979E01265B3F4F42E050E061E0CE0113
:100A100001960E947309CE0101960E948702CE01C1
:100A200001960E947704811105C08F81873011F4EF
:100A30008A8501C081E0C55BDF4F0FB6F894DEBF49
:100A40000FBECDBFDF91CF910895CF93DF93CDB788
:100A5000DEB7CA54D1090FB6F894DEBF0FBECDBFC2
:100A600081E02B968FAF2B979E01265B3F4F41E095
:100A700050E061E0CE0101960E947309CE0101961B
:100A80000E948702CE0101960E947704811105C061
:100A90008F81873011F48A8501C081E0C65BDF4F0A
:100AA0000FB6F894DEBF0FBECDBFDF91CF91089592
:100AB0001F920F920FB60F9211242F933F938F9393
:100AC0009F93AF93BF938091020790910307A091EA
:100AD0000407B09105073091010723E0230F2D375C
:100AE00020F40196A11DB11D05C026E8230F029632
:100AF000A11DB11D20930107809302079093030766
:100B0000A0930407B093050780910607909107070B
:100B1000A0910807B09109070196A11DB11D80930E
:100B2000060790930707A0930807B0930907BF91A2
:100B3000AF919F918F913F912F910F900FBE0F908A
:100B40001F901895FC01248135816217730748F4C2
:100B500080819181009729F0FC01E60FF71F8081C9
:100B6000089580E00895EF92FF920F931F93CF9323
:100B7000DF93EC01FB0184819581E080F1800C81A1
:100B80001D81E114F104B1F0009701F1080F191F64
:100B9000B801CE010E944002882361F0288139818A
:100BA0008C819D81B701820F931F0E94E0131D83EA
:100BB0000C830CC088819981009711F00E94481223
:100BC000198218821D821C821B821A82CE01DF913B
:100BD000CF911F910F91FF90EF900895EF92FF92A8
:100BE0000F931F93CF93DF931F921F92CDB7DEB762
:100BF0008C0169831A82FC01E480F580FFEFEF1A13
:100C0000FF0AB7010E944002882381F0F801208189
:100C1000318184819581BE016F5F7F4F820F931F69
:100C20000E94E013F801F582E48281E00F900F90BA
:100C3000DF91CF911F910F91FF90EF9008950F9347
:100C40001F93CF93DF938C01EB01FC018081918195
:100C50000097B1F0688179816115710579F0428161
:100C600053812C813D814217530740F00E94E013CD
:100C70008C819D81F8019583848313C00E94481262
:100C800088819981F801918380838A819B819383F4
:100C900082838C819D8195838483198218821B8233
:100CA0001A821D821C82DF91CF911F910F910895AE
:100CB000EF92FF920F931F93CF93DF93EC017B0191
:100CC0008A01BA010E9440022881398181110DC038
:100CD0002115310519F0C9010E94481219821882A4
:100CE0001D821C821B821A8206C01D830C83B701E1
:100CF000C9010E94E013CE01DF91CF911F910F91A6
:100D0000FF90EF900895FC01808191810C9448122E
:100D1000CF93DF931F921F92CDB7DEB7FC011182F4
:100D20001082138212821582148269831A82BE0194
:100D30006F5F7F4FFB0101900020E9F73197AF0112
:100D4000461B570B0E9458060F900F90DF91CF91D2
:100D50000895FC011182108213821282158214827E
:100D60006115710551F0FB0101900020E9F7319701
:100D7000AF01461B570B0C9458060895FC01538D88
:100D8000448D252F30E0842F90E0821B930B541765
:100D900010F0CF96089501970895FC01918D828DF2
:100DA000981761F0828DDF01A80FB11D5D968C91BF
:100DB000928D9F5F9F73928F90E008958FEF9FEFCA
:100DC0000895FC01918D828D981731F0828DE80F86
:100DD000F11D858D90E008958FEF9FEF0895FC0140
:100DE000918D228D892F90E0805C9F4F821B91090D
:100DF0008F739927089589EF95E00E94EF0621E00F
:100E0000892B09F420E0822F0895FC01848DDF01F5
:100E1000A80FB11DA35ABF4F2C91848D90E001966D
:100E20008F739927848FA689B7892C93A089B1895C
:100E30008C9180648C93938D848D981306C0028866
:100E4000F389E02D80818F7D80830895EF92FF925A
:100E50000F931F93CF93DF93EC0181E0888F9B8DDD
:100E60008C8D981305C0E889F989808185FD24C09F
:100E7000F62E0B8D10E00F5F1F4F0F731127E02E22
:100E80008C8DE8120CC00FB607FCFACFE889F989FF
:100E9000808185FFF5CFCE010E940507F1CF8B8DB4
:100EA000FE01E80FF11DE35AFF4FF0820B8FEA8934
:100EB000FB898081806207C0EE89FF896083E889B1
:100EC000F98980818064808381E090E0DF91CF9117
:100ED0001F910F91FF90EF900895CF93DF93EC0156
:100EE000888D8823C9F0EA89FB89808185FD05C04A
:100EF000A889B9898C9186FD0FC00FB607FCF5CF84
:100F0000808185FFF2CFA889B9898C9185FFEDCFCB
:100F1000CE010E940507E7CFDF91CF910895209180
:100F2000F0053091F1052817390771F49091EE051D
:100F30008091EF05981741F0E091EE05F0E0E65F53
:100F4000F84F808190E008958FEF9FEF0895089506
:100F50001F93CF93DF93DC015C962D913C915D97BD
:100F60002115310539F481E090E013969C938E931E
:100F700012973DC05196ED91FC91529750969C91DD
:100F80005097892F80951FB75E964C915E9741FBD5
:100F9000772770F941FD6095F8944081772311F02F
:100FA000492B01C048234083E9012197F1F748E02C
:100FB000508160FF02C0592B01C058235083E901C2
:100FC0002197F1F76695415099F7772321F09081A9
:100FD0008923808303C08081982B90831FBF5C96F8
:100FE0008D919C915D970197F1F721E030E0C90167
:100FF000DF91CF911F9108952091F0053091F10577
:101000002817390771F48091EF052091EE0590E0E3
:10101000805C9F4F821B910960E470E00E94611127
:10102000089580E090E008952091F0053091F10559
:1010300028173907B9F49091EE058091EF059817BC
:1010400089F0E091EE05F0E0E65FF84F80812091B5
:10105000EE0530E02F5F3F4F2F7333272093EE05CF
:1010600090E008958FEF9FEF0895089580E090E05D
:101070000895CF93DF93D1E089EF95E00E94EF06CA
:10108000892BC9F089EF95E00E94CD06C82F682F03
:1010900083EE96E00E94EE05CA3011F4D093F2057B
:1010A0008091E7069091E806892B31F781ED95E074
:1010B0000E947902E1CFDF91CF9108950E94FB0653
:1010C000811125C080E090E0892B41F080E090E024
:1010D000892B21F00E94000081111CC080E090E06B
:1010E000892B41F080E090E0892B21F00E940000E4
:1010F000811113C080E090E0892BA1F080E090E0A6
:10110000892B81F00E94000081110AC008950E947D
:101110003908D8CF0E940000E1CF0E940000EACF3A
:101120000C94000008950E94C9131F920F920FB6ED
:101130000F9211240BB60F922F933F934F935F930F
:101140006F937F938F939F93AF93BF93EF93FF938F
:1011500089EF95E00E940507FF91EF91BF91AF9154
:101160009F918F917F916F915F914F913F912F91BF
:101170000F900BBE0F900FBE0F901F9018951F92EF
:101180000F920FB60F9211240BB60F922F938F93DD
:101190009F93EF93FF93E0910906F0910A068081F7
:1011A000E0910F06F091100682FD12C090818091AF
:1011B00012068F5F8F7320911306821751F0E09112
:1011C0001206F0E0E750FA4F958F8093120601C0A7
:1011D0008081FF91EF919F918F912F910F900BBE86
:1011E0000F900FBE0F901F9018951F920F920FB681
:1011F0000F9211240BB60F922F933F934F935F934F
:101200006F937F938F939F93AF93BF93EF93FF93CE
:10121000E091F005F091F105309709F451C0968DF9
:10122000A685B785858591FF04C09C91892329F403
:1012300047C09C91892309F043C0A389B4899C913C
:101240008589809589238C93868997890197F1F701
:10125000608D718DA685B785558538E020E0CB017E
:101260000197F1F7822F90E095958795282F4C9163
:10127000452309F02068315091F7868D81FD209536
:101280008091EF0590E001968F7399273091EE05DC
:10129000381749F0A091EF05B0E0A65FB84F2C9346
:1012A0008093EF0503C0868D8160868F828D938D3C
:1012B0000197F1F7A389B4899C918589892B8C9337
:1012C000FF91EF91BF91AF919F918F917F916F911E
:1012D0005F914F913F912F910F900BBE0F900FBEDA
:1012E0000F901F901895DC0181E09FEE11969C9362
:1012F0008E9316966C93169718965C934E93179749
:101300008FEF12968C93129713968C9313971496D3
:101310008C93149715968C93159719964034510514
:1013200020F4B901CD010C94CE1380E4F9010190B1
:101330000D928A95E1F708950895CF92DF92EF928A
:10134000FF920F931F93CF93DF936C017A018B0170
:10135000C0E0D0E0CE15DF0589F0D8016D918D0198
:10136000D601ED91FC910190F081E02DC601199517
:10137000892B11F47E0102C02196ECCFC701DF91C9
:10138000CF911F910F91FF90EF90DF90CF90089534
:10139000CF93DF93CDB7DEB7C055D1090FB6F89420
:1013A000DEBF0FBECDBF789484B5826084BD84B5A6
:1013B000816084BD85B5826085BD85B5816085BD50
:1013C00080916E00816080936E0010928100809108
:1013D0008100826080938100809181008160809390
:1013E0008100809180008160809380008091B100B5
:1013F00084608093B1008091B00081608093B000E0
:101400008091910082608093910080919100816031
:1014100080939100809190008160809390008091F2
:10142000A10082608093A1008091A10081608093DF
:10143000A1008091A00081608093A0008091210193
:10144000826080932101809121018160809321013C
:101450008091200181608093200180917A008460D6
:1014600080937A0080917A00826080937A008091E4
:101470007A00816080937A0080917A0080688093FE
:101480007A001092C10040E855E260E070E089EF18
:1014900095E00E943D0368EE73E080E090E00E94DA
:1014A0003D048091BC069091BD06009731F040E06C
:1014B00051EE60E070E00E943D03E091BA06F091C9
:1014C000BB06309709F4A8C0138E128E118E108EB1
:1014D000178A168A82E490E0958F848F848596EF30
:1014E000980F943048F02EEC280F243028F022EC8E
:1014F000280F283008F063C02FE030E0378B268BB0
:1015000020E430E0318F208F27E230E0338F228FCC
:10151000943060F02EEC280F243040F042EC480F5D
:10152000483008F426C520E030E025C528E630E044
:10153000A8E6B0E04C91943018F08E53883010F04B
:1015400081E001C084E0842BD9018C93848596EFDF
:10155000980F943058F02EEC280F243038F022ECFD
:10156000280F283030F020E030E005C02BE630E0D6
:1015700002C02DE630E0348B238B943010F49AEFC8
:101580000BC0823381F0833381F0843381F092EC9D
:10159000980F983070F492EC980F81E001C0880F9A
:1015A0009A95EAF707C088E005C084E003C082E0AE
:1015B00001C081E0858B848D958D0197F1F7828D37
:1015C000938D892B49F14091F0055091F1054E170B
:1015D0005F0711F14115510571F0DA0153962D9114
:1015E0003C915497D9019C91DA0155968C91809544
:1015F0008923D9018C93868D8E7F868F1092EF057B
:101600001092EE05F093F105E093F005A389B489FB
:101610009C918589892B8C938E01065B1F4F85E0F9
:10162000F80111928A95E9F783E1D8018C938091B2
:101630009C0690919D0620919E0630919F061196E2
:101640003C93119712962C93129713969C93139791
:1016500014968C93980145E050E061E0CE0101962C
:101660000E947309CE0101960E948702CE01019665
:101670000E947704811109C08F81873031F48A85F7
:10168000811103C080E392E002C08AE492E00E94EC
:101690007902F6E0DF2EA5E0CA2EBCE0BB2E8091D9
:1016A000F805882309F4E5C00E942505813009F476
:1016B0008EC048F0823009F496C0833009F08FC0A4
:1016C0008DE892E08EC08DE692E00E94790281E082
:1016D0000E94EF04863009F472C030F4882359F078
:1016E000813009F474C07BC0873009F46BC0853148
:1016F00009F468C074C089EA92E00E947902E6E0C9
:10170000F2E0D8018D2D01900D928A95E1F79801B4
:1017100046E050E061E0CE0101960E947309CE01DF
:1017200001960E948702CE0101960E9477048111E2
:101730004EC08F81873009F04AC08B8590E0982F8A
:1017400088272C85822B90939706809396068D850B
:1017500090E0982F88272E85822B9093990680936E
:1017600098068A85811131C08DEE92E00E9479023F
:1017700082E093E00E9406046091960670919706BD
:1017800080E090E04AE00E94A4038DE093E00E9494
:101790000604609198067091990680E090E04AE016
:1017A0000E94A40382E293E00E9467021092F8056F
:1017B00085E293E00E94790281E493E012C089EB14
:1017C00092E00FC089EC92E00CC0813019F489E7F7
:1017D00092E007C0893019F48BE593E002C08BE9F1
:1017E00092E00E94790262E370E080E090E00E9463
:1017F0003D0455CF8BE793E00E9479028AE993E09C
:101800000E9479028091F6058093F505882309F4FA
:10181000ADC385EE93E00E9406046AE070E080911B
:10182000F5050E94E50384EF93E00E9406046AE058
:1018300070E08091F5050E94E5030E942505282FA0
:10184000813041F1D8F48DE692E00E94790281E086
:101850000E94EF04F82EB6E08B1709F4C5C0B81744
:1018600058F5F7E08F132FC089EC92E00E947902BF
:10187000EF2C8091F4058111BDCF38C1823029F061
:10188000833069F48DE892E007C082E095E00E9421
:101890000604D3CF89E792E00E947902CECF8BE98C
:1018A00092E061962FAF61970E94790261962FAD09
:1018B00061972111C2CFCBCF882349F0E1E08E1789
:1018C00009F495C097C085E1F81671F293C089EAD2
:1018D00092E00E9479028CE194E00E94790260ED2E
:1018E00077E080E090E00E943D040E942505823070
:1018F000E1F78AE294E00E9406046AE070E08091D9
:10190000F5050E94E5038EE294E00E9479020E94B0
:101910002505282F813091F038F0823051F0833046
:1019200081F48DE892E0F1CF8DE692E00E94790299
:1019300014C082E095E00E940604E9CF89E792E0B6
:10194000E4CF8BE992E061962FAF61970E94790214
:1019500061962FAD61972111DACF82E00E94EF04EA
:10196000F82E96E0891709F43FC0981730F08823C5
:1019700069F0A1E08A17D9F13DC0B7E08B1709F4EF
:1019800073CFE5E18E1709F46FCF34C089EA92E096
:101990000E94790286E494E00E9406046AE070E006
:1019A0008091F5050E94E503D801CC92980141E0B1
:1019B00050E061E0CE0101960E947309CE010196CC
:1019C0000E948702CE0101960E947704811105C012
:1019D0008F81873011F42A8501C021E0822F90E0A9
:1019E000009709F04BC00CC089EB92E03FCF89E72C
:1019F00092E03CCF8BE992E00E947902EF2C72C01A
:101A00008BE594E00E9479021092F4058AE294E05A
:101A10000E9406046AE070E08091F5050E94E503EB
:101A20008091F505F8011082118212821382D08212
:101A300091E091838383980144E050E061E0CE011E
:101A400001960E947309CE0101960E948702CE0181
:101A500001960E947704811105C08F81873011F4AF
:101A60002A8501C021E0822F90E00097D1F486E81A
:101A700094E00E9479021092F40534C081309105FF
:101A800039F489E792E00E947902EE24E394F1CEE2
:101A90000A97E9F48BE694E00E9479026AE0E62E68
:101AA000E8CE8130910569F38B30910539F48EE8E9
:101AB00094E00E9479025BE0E52EDBCE489739F492
:101AC0008FEA94E00E94790248E1E42ED2CE8BE9BD
:101AD00092E061962FAF61970E94790261962FADD7
:101AE0006197E22EEE2009F49ECEC3CEFF24F3943C
:101AF0008091F305882309F463C086EC94E00E948A
:101B000079028091F6058093F505882309F42EC2A9
:101B100084E095E00E9406046AE070E08091F5059B
:101B20000E94E5038091F505D801EC2D1D92EA9500
:101B3000E9F7D801BC921496FC92149712968C93F4
:101B4000980145E050E061E0CE0101960E947309E2
:101B5000CE0101960E948702CE0101960E94770471
:101B600081110FC08F81873061F42A85211107C050
:101B700082E195E00E9479021092F305B9CF2130FD
:101B800019F489E792E009C02B3019F48BE195E054
:101B900004C0283129F48FEA94E00E947902A8CF8A
:101BA0008DE395E061962FAF61970E94060460E196
:101BB00070E061962FAD6197822F0E94E50398CF68
:101BC0008091F205882309F4D1C160E070E083EED2
:101BD00096E00E94A205682FCE0101960E94880619
:101BE000BE016F5F7F4F85EF96E00E941F06CE011A
:101BF00001960E94830661E070E083EE96E00E9409
:101C0000A205682F85EF96E00E94EE0562E070E085
:101C100083EE96E00E94A205682FCE0101960E94F5
:101C20008806BE016F5F7F4F8FEE96E00E941F0611
:101C3000CE0101960E94830633E0632E712CB3011E
:101C400083EE96E00E94A205682F8FEE96E00E9438
:101C5000EE05BFEF6B1A7B0AE6E06E16710479F7AA
:101C600066E070E083EE96E00E94A205682FCE0148
:101C700001960E948806BE016F5F7F4F89EE96E055
:101C80000E941F06CE0101960E94830627E0622E65
:101C9000712CB30183EE96E00E94A205682F89EEB5
:101CA00096E00E94EE05FFEF6F1A7F0A80E168164A
:101CB000710479F72091F9063091FA068091FF06B8
:101CC000909100072817390709F050C18091F50657
:101CD0009091F6066091FB067091FC06009719F052
:101CE00061157105A1F46115710549F0232BA1F06F
:101CF000DB018C9190E09195819591090AC0009744
:101D000059F0232B49F0FC01808190E002C00E9431
:101D1000D713892B09F02AC16FE475E0CE01019633
:101D20000E94A90663EE76E0CE0101960E94B305FB
:101D30000E940804CE0101960E9483068EE595E07C
:101D40000E941D048823D1F063E675E0CE01019660
:101D50000E94A90669EE76E0CE0101960E94B305C5
:101D60000E940804CE0101960E94830681E08093C0
:101D7000F80580E795E00E947902EEC083E895E0DF
:101D80000E941D04882309F487C068E875E0CE012D
:101D900001960E94A90669EE76E0CE0101960E94A6
:101DA000B3050E940804CE0101960E94830660E0FC
:101DB00070E089EE96E00E94A205682FCE010196A0
:101DC0000E948806BE016F5F7F4F8DED96E00E94F6
:101DD0001F06CE0101960E94830666246394712C2F
:101DE0008091ED069091EE066816790670F4B301C5
:101DF00089EE96E00E94A205682F8DED96E00E9484
:101E0000EE05FFEF6F1A7F0AEBCF8091DD06909110
:101E1000DE06009719F00E94251103C060E070E013
:101E2000CB017093F7056093F60589E995E00E9470
:101E300006048DED96E00E9408048FE995E00E946B
:101E400006044090F6055090F705052C000C660836
:101E5000770877FE14C0E091F905F091FA0501903A
:101E6000F081E02D6DE289EF95E0199566277727DF
:101E7000CB0164197509860997094AE003C04AE055
:101E8000C301B2010E94A40382E293E00E946702B0
:101E900081E08093F40560C084EA95E00E941D040F
:101EA000882309F447C060E070E089EE96E00E9464
:101EB000A205682FCE0101960E948806BE016F5FC1
:101EC0007F4F8DED96E00E941F06CE0101960E9485
:101ED000830666246394712C8091ED069091EE0642
:101EE0006816790670F4B30189EE96E00E94A205A7
:101EF000682F8DED96E00E94EE058FEF681A780A44
:101F0000EBCF8091DD069091DE06009719F00E94DC
:101F1000251103C060E070E0CB017093F70560937A
:101F2000F605CB0187559A4F0E94790281E0809394
:101F3000F30512C084E293E00E941D04882361F03F
:101F400082EC95E00E94790240E050E064E273E0A8
:101F50008FEE96E00E94580640E050E064E273E0A5
:101F600083EE96E00E9458061092F2050E945E08E9
:101F700096CB28E630E0483008F4DACAA0E0B0E0BA
:101F8000D9CACF92DF92EF92FF92CF93DF93109254
:101F9000FC051092FB0568EEC62E63E0D62EE12C00
:101FA000F12CC092FD05D092FE05E092FF05F09263
:101FB000000680E192E09093FA058093F90585ECA4
:101FC00090E0909306068093050684EC90E0909351
:101FD00008068093070680EC90E090930A068093B1
:101FE000090681EC90E090930C0680930B0682EC3E
:101FF00090E090930E0680930D0686EC90E090930F
:10200000100680930F06109212061092130610927B
:102010001406109215066EEC75E08BEF96E00E94A8
:10202000A90664E273E085EF96E00E94A90664E2E7
:1020300073E08FEE96E00E94A90664E273E089EEF9
:1020400096E00E94A90664E273E083EE96E00E94A7
:10205000A90664E273E08DED96E00E94A906109255
:10206000C1061092C006C092C206D092C306E0928A
:10207000C406F092C50682E292E09093BF06809378
:10208000BE061092D5061092D4061092D706109272
:10209000D6061092D9061092D8061092DB0610923E
:1020A000DA066091DC066E7F6D7F6093DC066695D4
:1020B000617081E068278AE00E949E01E6E9F2E013
:1020C0002491E0E5F2E08491882399F090E0880F74
:1020D000991FFC01EE5EFD4FA591B491FC01E85003
:1020E000FE4F859194918FB7F894EC91E22BEC938D
:1020F0008FBFE6E9F2E0E491E093CE06E0E5F2E09E
:10210000E491F0E0EE0FFF1FE850FE4F85919491AF
:102110009093D0068093CF06E7E9F2E02491E1E5C1
:10212000F2E084918823C1F090E0880F991FFC01B0
:10213000EE5EFD4FC591D491FC01E850FE4FA59194
:10214000B4919FB7F8948881E22FE0958E2388831D
:102150008C91E823EC939FBF8091DC0681FD04C045
:1021600061E08BE00E949E018EEB96E02BE02093D5
:10217000CA06E7E9F2E0E491E093CB06E1E5F2E09C
:10218000E491F0E0EE0FFF1FE45DFD4F25913491E7
:102190003093CD062093CC0610929C0610929D069B
:1021A00010929E0610929F064FEF5FEFBA01409388
:1021B000A0065093A1066093A2067093A306109206
:1021C000BD061092BC069093BB068093BA0690930E
:1021D000B9068093B806DF91CF91FF90EF90DF9022
:1021E000CF90089582E292E09093BF068093BE065E
:1021F0008091F0059091F1058E5B964071F4E0912D
:10220000D106F091D20690818091D30680958923E2
:1022100080831092F1051092F0058DED96E00E94FA
:10222000830683EE96E00E94830689EE96E00E9484
:1022300083068FEE96E00E94830685EF96E00E946B
:1022400083068BEF96E00C9483061F93FC0199277D
:102250008827BC01E89411911032E9F3193010F08D
:102260001E30C8F31B3251F01D3249F4689406C089
:102270000E944C11610F711D811D911D1191105310
:102280001A30B0F33EF490958095709561957F4F2C
:102290008F4F9F4F1F910895592F482F372F262F6B
:1022A000660F771F881F991F660F771F881F991F5A
:1022B000620F731F841F951F660F771F881F991F5A
:1022C000089597FB072E16F4009407D077FD09D0E8
:1022D0000E949F1107FC05D03EF4909581959F4F79
:1022E0000895709561957F4F0895A1E21A2EAA1B5B
:1022F000BB1BFD010DC0AA1FBB1FEE1FFF1FA217B6
:10230000B307E407F50720F0A21BB30BE40BF50BB2
:10231000661F771F881F991F1A9469F7609570953B
:10232000809590959B01AC01BD01CF010895EE0F02
:10233000FF1F881F8BBF0790F691E02D1994AA1BF1
:10234000BB1B51E107C0AA1FBB1FA617B70710F0A0
:10235000A61BB70B881F991F5A95A9F780959095D2
:10236000BC01CD010895CF93DF938230910510F425
:1023700082E090E0E0914C07F0914D0720E030E0E2
:10238000C0E0D0E0309711F14081518148175907E2
:10239000C0F04817590761F482819381209719F0A2
:1023A0009B838A832BC090934D0780934C0726C054
:1023B0002115310519F04217530718F49A01BE018F
:1023C000DF01EF010280F381E02DDCCF2115310523
:1023D00009F1281B390B2430310590F412968D91A8
:1023E0009C9113976115710521F0FB019383828302
:1023F00004C090934D0780934C07FD01329644C072
:10240000FD01E20FF31F81939193225031092D9327
:102410003C933AC020914A0730914B07232B41F45B
:10242000209102023091030230934B0720934A0718
:1024300020910002309101022115310541F42DB7A0
:102440003EB74091040250910502241B350BE091E8
:102450004A07F0914B07E217F307A0F42E1B3F0B3E
:102460002817390778F0AC014E5F5F4F2417350706
:1024700048F04E0F5F1F50934B0740934A078193DC
:10248000919302C0E0E0F0E0CF01DF91CF91089599
:102490000F931F93CF93DF93009709F48CC0FC0137
:1024A00032971382128200914C0710914D0701154B
:1024B000110581F420813181820F931F20914A07F9
:1024C00030914B072817390779F5F0934B07E093C4
:1024D0004A0771C0D80140E050E0AE17BF0750F482
:1024E00012962D913C911397AD012115310509F1FB
:1024F000D901F3CF9D01DA01338322836081718199
:10250000860F971F8217930769F4EC0128813981A0
:10251000260F371F2E5F3F4F318320838A819B8197
:1025200093838283452B29F4F0934D07E0934C0766
:1025300042C01396FC93EE931297ED014991599185
:102540009E01240F351FE217F30771F480819181FA
:10255000840F951F029611969C938E93828193818E
:1025600013969C938E931297E0E0F0E0D8011296B8
:102570008D919C911397009719F0F8018C01F6CF7B
:102580008D919C9198012E5F3F4F820F931F209158
:102590004A0730914B072817390769F4309729F417
:1025A00010924D0710924C0702C0138212821093B2
:1025B0004B0700934A07DF91CF911F910F91089528
:1025C0006F927F928F929F92AF92BF92CF92DF9243
:1025D000EF92FF920F931F93CF93DF93EC0100973D
:1025E00089F4CB01DF91CF911F910F91FF90EF9074
:1025F000DF90CF90BF90AF909F908F907F906F9023
:102600000C94B311FC01E60FF71F9C012250310915
:10261000E217F30708F4ACC0D9010D911C91119792
:1026200006171707B0F00530110508F49FC0C80160
:1026300004978617970708F499C002501109061BE2
:10264000170B019311936D937C93CF010E94481255
:102650008DC05B01A01AB10A4C01800E911EA091A1
:102660004C07B0914D0740E050E0E12CF12C109761
:1026700009F44AC0A815B905D1F56D907C90119761
:10268000630182E0C80ED11CCA14DB0480F1A301EF
:102690004A195B096A0182E0C80ED11C1296BC90EF
:1026A00012971396AC91B5E0CB16D10440F0B282EC
:1026B000A38351834083D9016D937C930AC00E5F3D
:1026C0001F4FC301800F911FF90191838083EB2D70
:1026D000FA2FE114F10431F0D7011396FC93EE9335
:1026E000129744C0F0934D07E0934C073FC08D9183
:1026F0009C9111974817590708F4AC017D01129677
:102700000D90BC91A02DB3CF80914A0790914B07BB
:1027100088159905E1F446175707C8F4809100021F
:1027200090910102009741F48DB79EB74091040249
:1027300050910502841B950BE817F907C8F4F09334
:102740004B07E0934A07F901718360830FC0CB0107
:102750000E94B3117C01009759F0A801BE010E94AC
:10276000CE13CE010E944812C70104C0CE0102C0A0
:1027700080E090E0DF91CF911F910F91FF90EF905B
:10278000DF90CF90BF90AF909F908F907F906F9091
:10279000089581E090E0F8940C94E713FB01DC01CC
:1027A00002C001900D9241505040D8F70895FB01AE
:1027B000DC018D91019080190110D9F3990B0895D6
:1027C000FB01DC0101900D920020E1F7089511E07A
:1027D000CAE6D1E000E006C0802FFE010E949711FA
:1027E0002196011DCB36D10780E00807A9F7F894A0
:0227F000FFCF19
:1027F20000004E0780001B01000000A30000000043
:1028020026079D09BE066D07EF06CD06E10600000C
:102812000000A8079D093608A707FC0714088F07C0
:10282200466F756E642066696E6765727072696E56
:10283200742073656E736F722100446964206E6F39
:10284200742066696E642066696E6765727072696B
:102852006E742073656E736F72203A2800496D6141
:1028620067652074616B656E00436F6D6D756E698F
:10287200636174696F6E206572726F7200496D6177
:1028820067696E67206572726F7200556E6B6E6F4C
:10289200776E206572726F7200496D6167652063A1
:1028A2006F6E76657274656400496D616765207448
:1028B2006F6F206D6573737900436F756C64206E62
:1028C2006F742066696E642066696E6765727072E5
:1028D200696E7420666561747572657300466F7502
:1028E2006E642061207072696E74206D6174636819
:1028F2002100466F756E64204944202300207769C9
:10290200746820636F6E666964656E6365206F66C6
:1029120020000D0A004C4F4F4B494E4720466F7224
:102922002066702073657420746F2066616C736515
:10293200005F5F5F5F5F5F5F5F5F5F5F5F5F5F5F04
:102942005F5F5F5F5F5F5F5F5F5F00446964206E30
:102952006F742066696E642061206D617463682EF5
:102962002054727920616761696E005265616479F1
:1029720020746F20656E726F6C6C20612066696EC8
:102982006765727072696E742100506C656173655F
:10299200207479706520696E20746865204944202E
:1029A20023202866726F6D203120746F20313237F8
:1029B2002920796F752077616E7420746F2073619E
:1029C200766520746869732066696E676572206136
:1029D200732E2E2E00456E726F6C6C696E672049E5
:1029E2004420230057616974696E6720666F722004
:1029F20076616C69642066696E67657220746F2007
:102A0200656E726F6C6C20617320230052656D6F6E
:102A120076652066696E6765720049442000506CD5
:102A22006163652073616D652066696E67657220FA
:102A3200616761696E004372656174696E67206DDA
:102A42006F64656C20666F722023005072696E7429
:102A520073206D617463686564210046696E676501
:102A6200727072696E747320646964206E6F742070
:102A72006D617463680053746F7265642100436F03
:102A8200756C64206E6F742073746F726520696E4A
:102A92002074686174206C6F636174696F6E0045A5
:102AA20072726F722077726974696E6720746F2018
:102AB200666C61736800506C65617365207479702F
:102AC2006520696E207468652049442023202866A9
:102AD200726F6D203120746F203132372920796F67
:102AE200752077616E7420746F2064656C657465FF
:102AF2002E2E2E0044656C6574696E672049442051
:102B0200230044656C657465642100436F756C64D1
:102B1200206E6F742064656C65746520696E207424
:102B2200686174206C6F636174696F6E00556E6BBF
:102B32006E6F776E206572726F723A20307800691C
:102B42006E757420737472696E67206A65004670D0
:102B5200477400447562752046704774202B20002C
:102B620064656A2070727374206E612073656E7A78
:102B72006F72004670456E007265636569766564C2
:102B82002064617461203D20006E756D313D006EE0
:102B9200756D3D004670526D0064656C6574696EBA
:102BA200672066696E676572207A2069642D6A659E
:102BB2006D0064756275207072617A6E6F003031DB
:102BC200006475627520656D707479207374726922
:0E2BD2006E67206E6120737269616C75000081
:00000001FF
