:100000000C9403020C9434020C9434020C943402C9
:100010000C9434020C9434020C9434020C94340288
:100020000C9434020C94460B0C94460B0C94460B27
:100030000C9434020C9434020C9434020C94340268
:100040000C9434020C94DA090C9434020C943402AB
:100050000C9434020C9434020C9434020C94B510B9
:100060000C9434020C94E8070C94BE070C943402F0
:100070000C9434020C9434020C9434020C94340228
:100080000C94AC090C9434020C9434020C94340299
:100090000C9434020C9434020C9434020C941E0818
:1000A0000C9434020C9434020C947E090C943402A7
:1000B0000C9434020C9434020C9434020C945009C5
:1000C0000C9434020C9434020C9434020C943402D8
:1000D0000C9434020C9434020C9434020C943402C8
:1000E0000C943402420F450F340F380F3C0F7C0F35
:1000F000490F4D0F530F570F5B0F610F650F690FBE
:100100007C0F6F0F730F770F441049105410541069
:100110005410541059105B105E100C9429050C9467
:1001200026050C9418060C9454100C943C0F0C9457
:1001300032060C94770F0C946F0F0C94650F0C948F
:1001400069040C9425050C945B100C9467160C94B0
:10015000D1060C9482040C94F2050C949E020C942B
:10016000450F0C9492030C94340F0C94730F0C9461
:1001700059100C94690F0C94490F0C9445020C947F
:1001800044100C948A100C9483030C9449100C9422
:100190005E100C94EE040C9467020C94420F0C94C5
:1001A000D6040C94FF100C94E5020C9436020C94C7
:1001B000AE030C94A6030C94530F0C9482030C947E
:1001C0005B0F0C94570F0C9459020C9481040C94FF
:1001D000DE030C947C0F0C94380F0C94610F0C947C
:1001E0004D0F000020002300260029002C002F00C6
:1001F00032000001000003010601090100070E0999
:100200001C1B1215383F363124232A2D70777E7936
:100210006C6B6265484F464154535A5DE0E7EEE926
:10022000FCFBF2F5D8DFD6D1C4C3CACD90979E9916
:100230008C8B8285A8AFA6A1B4B3BABDC7C0C9CE06
:10024000DBDCD5D2FFF8F1F6E3E4EDEAB7B0B9BEF6
:10025000ABACA5A28F88818693949D9A2720292EE6
:100260003B3C35321F18111603040D0A5750595ED6
:100270004B4C45426F68616673747D7A898E8780C6
:1002800095929B9CB1B6BFB8ADAAA3A4F9FEF7F0B6
:10029000E5E2EBECC1C6CFC8DDDAD3D4696E6760A6
:1002A00075727B7C51565F584D4A4344191E171096
:1002B00005020B0C21262F283D3A33344E49404786
:1002C00052555C5B7671787F6A6D64633E39303776
:1002D00022252C2B0601080F1A1D1413AEA9A0A766
:1002E000B2B5BCBB9691989F8A8D8483DED9D0D756
:1002F000C2C5CCCBE6E1E8EFFAFDF4F30000210043
:10030000240027002A002D003000330001010000E6
:10031000040107010A0100002200250028002B002B
:100320002E003100340002010000050108010B011C
:1003300005050505070508080808020202020A0A61
:10034000080804040404010101010101010103037F
:10035000030303030303040707070C0C0C0C0C0C2A
:100360000C0C0202020206060606060606060B0B27
:100370000B0B0B0B0B0B0102102020080810204068
:100380001020408002010201080402010102040859
:1003900010204080804020100804020180040201E7
:1003A0008040201008040201080402010102040830
:1003B00010204080010204081020408000000A0B39
:1003C00002090C0D0E0807030401000000000000E4
:1003D000000000000000000000000000000000001D
:1003E00000000000000000001211100000000000DA
:1003F00000000000000000000000000000000000FD
:1004000000006716FF1011241FBECFEFD1E2DEBF40
:10041000CDBF00E00CBF13E0A0E0B2E0E0E4F2E307
:1004200000E00BBF02C007900D92AA36B107D9F7C2
:1004300026E0AAE6B3E001C01D92A23BB207E1F7B5
:1004400012E0C2E0D2E000E006C021970109802F4F
:10045000FE010E94B317C130D10780E00807A9F759
:100460000E9415110C940E190C940000FC01538D80
:10047000448D252F30E0842F90E0821B930B54177E
:1004800010F0CF96089501970895FC01918D828D0B
:10049000981761F0828DDF01A80FB11D5D968C91D8
:1004A000928D9F5F9F73928F90E008958FEF9FEFE3
:1004B0000895FC01918D828D981731F0828DE80F9F
:1004C000F11D858D90E008958FEF9FEF0895FC0159
:1004D000918D228D892F90E0805C9F4F821B910926
:1004E0008F739927089583EA94E00E94670221E0C0
:1004F000892B09F420E0822F0895FC01848DDF010F
:10050000A80FB11DA35ABF4F2C91848D90E0019686
:100510008F739927848FA689B7892C93A089B18975
:100520008C9180648C93938D848D981306C002887F
:10053000F389E02D80818F7D80830895EF92FF9273
:100540000F931F93CF93DF93EC0181E0888F9B8DF6
:100550008C8D981305C0E889F989808185FD24C0B8
:10056000F62E0B8D10E00F5F1F4F0F731127E02E3B
:100570008C8DE8120CC00FB607FCFACFE889F98918
:10058000808185FFF5CFCE010E947D02F1CF8B8D5A
:10059000FE01E80FF11DE35AFF4FF0820B8FEA894D
:1005A000FB898081806207C0EE89FF896083E889CA
:1005B000F98980818064808381E090E0DF91CF9130
:1005C0001F910F91FF90EF900895CF93DF93EC016F
:1005D000888D8823C9F0EA89FB89808185FD05C063
:1005E000A889B9898C9186FD0FC00FB607FCF5CF9D
:1005F000808185FFF2CFA889B9898C9185FFEDCFE5
:10060000CE010E947D02E7CFDF91CF91089580E077
:1006100090E0892B21F00E947302811125C080E0B7
:1006200090E0892B41F080E090E0892B21F00E943E
:10063000000081111CC080E090E0892B41F080E037
:1006400090E0892B21F00E940000811113C080E00E
:1006500090E0892BA1F080E090E0892B81F00E944E
:10066000000081110AC008950E940000D8CF0E94A6
:100670000000E1CF0E940000EACF0C940000089532
:1006800085ED8093BC008091BC0084FDFCCF10926E
:10069000A20408954091FB03262F30E0240F311D62
:1006A00021323105DCF42091A2042430C9F4FC018C
:1006B00080E090E0861758F43091FB032191DC0133
:1006C000A752BC4FA30FB11D2C930196F3CF80917D
:1006D000FB03680F6093FB0380E0089581E00895B9
:1006E00082E00895DC01ED91FC910284F385E02D18
:1006F00019950895DC01ED91FC910190F081E02DB8
:10070000199508950895E091D4038091D303E817D3
:1007100030F4F0E0E45AFB4F808190E008958FEFD1
:100720009FEF08959091D4038091D303981750F4CC
:10073000E92FF0E0E45AFB4F208130E09F5F909377
:10074000D40302C02FEF3FEFC90108958091D30376
:1007500090E02091D403821B91090895CF92DF92FB
:10076000EF92FF920F931F93CF93DF937C01262F7D
:10077000972F8A018091D203882391F0C62FD72F1B
:100780006E01C40ED51ECC15DD0571F06991D7013F
:10079000ED91FC910190F081E02DC7011995F3CF07
:1007A000642F822F0E944A03C801DF91CF911F91CD
:1007B0000F91FF90EF90DF90CF900895CF93DF934C
:1007C0001F92CDB7DEB769832091D2032223D1F0E7
:1007D0002091CF03203240F021E030E0FC01338350
:1007E000228380E090E015C08091D003E82FF0E0F4
:1007F000E155FC4F998190838F5F8093D003809364
:10080000CF0305C061E0CE0101960E944A0381E05A
:1008100090E00F90DF91CF9108952091CF039091B8
:10082000D103213208F049C08091A2048111FCCF8C
:1008300032E03093A2046093A1043FEF3093A00410
:1008400010929F0420939E04AFEAB3E04CE754E07B
:10085000FA013E2F341B321718F43D913193F9CF32
:1008600010929D0420919D04990F922B90939D04CA
:1008700090919C04913061F410929C0490919D049D
:100880009093BB009091BC0093FDF8CF95EC01C014
:1008900095EE9093BC009091A2049230E1F3909178
:1008A000A0049F3F79F08091A004803241F08091B4
:1008B000A004803331F084E005C081E003C082E011
:1008C00001C083E01092D0031092CF031092D203A4
:1008D00008952091AD033091AE032817390771F4C4
:1008E0009091AC038091AB03981741F0E091AC0379
:1008F000F0E0E559FC4F808190E008958FEF9FEF85
:10090000089508951F93CF93DF93DC015C962D919A
:100910003C915D972115310539F481E090E0139603
:100920009C938E9312973DC05196ED91FC915297F6
:1009300050969C915097892F80951FB75E964C9149
:100940005E9741FB772770F941FD6095F8944081EF
:10095000772311F0492B01C048234083E9012197F7
:10096000F1F748E0508160FF02C0592B01C05823C5
:100970005083E9012197F1F76695415099F7772364
:1009800021F090818923808303C08081982B9083FC
:100990001FBF5C968D919C915D970197F1F721E0C7
:1009A00030E0C901DF91CF911F9108952091AD03EF
:1009B0003091AE032817390771F48091AB03209171
:1009C000AC0390E0805C9F4F821B910960E470E073
:1009D0000E949F17089580E090E008952091AD0354
:1009E0003091AE0328173907B9F49091AC03809188
:1009F000AB03981789F0E091AC03F0E0E559FC4FA8
:100A000080812091AC0330E02F5F3F4F2F7333275D
:100A10002093AC0390E008958FEF9FEF0895E0914D
:100A2000AD03F091AE03E817F90769F4A389B4891F
:100A30009C918589809589238C931092AE031092A6
:100A4000AD0381E0089580E00895089580E090E08E
:100A500008950E94FC18CF92DF92EF92FF920F93BD
:100A60001F93CF93DF936C018B017A01EC01CB5282
:100A7000DC4F888187FF04C0FB011182108224C0F3
:100A80008CE08C9D90018D9D300D11248881A901F1
:100A9000480F511D87FD5A958091D00590E0481769
:100AA000590794F48881A901480F511D87FD5A9573
:100AB000CA01FA01EE0FFF1F8E0F9F1FFC01E05CC1
:100AC000FA4F808186FD19C088818F5F88838CE012
:100AD0008C9D90018D9D300D11248881A901480FB6
:100AE000511D87FD5A958091D00590E04817590710
:100AF000BCF488818C3044F113C08881280F311DEB
:100B000087FD3A95F901EE0FFF1F2E0F3F1FF901E8
:100B1000E05CFA4F808160E08F730E94130FD4CFA6
:100B2000F80180819181049680349C4918F480E416
:100B30009CE904C0F801808191810496F7019183BA
:100B400080838FEF888345C0F8014081518188817F
:100B5000B901680F711D87FD7A95CB01FB01EE0F7E
:100B6000FF1F8E0F9F1FFC01E05CFA4F8181928175
:100B7000840F951FF701918380838881A901480F15
:100B8000511D87FD5A95CA01FA01EE0FFF1F8E0F06
:100B90009F1FFC01E05CFA4F808186FF1AC08881AC
:100BA000280F311D87FD3A95F901EE0FFF1F2E0F1B
:100BB0003F1FF901E05CFA4F808161E08F73DF91A4
:100BC000CF911F910F91FF90EF90DF90CF900C94F9
:100BD000130FDF91CF911F910F91FF90EF90DF9056
:100BE000CF9008951092D4031092D3031092D003A3
:100BF0001092CF031092A20481E08093A10410927E
:100C00009C0461E084E10E94130F61E085E10E9491
:100C1000130FE9EBF0E080818E7F808380818D7FF0
:100C2000808388E48093B80085E48093BC000895B5
:100C3000CF93DF93EC0181E08093D20384E2809331
:100C4000D1031092D0031092CF0364E170E080E0F2
:100C500090E00E94CC0F61E08A819B81DF91CF916F
:100C60000C940D04AF92BF92CF92DF92EF92FF925D
:100C70000F931F93CF93DF938C01D62EC72EF42EA4
:100C80005901C0E0D0E082E0E82EE40E6E2D80E253
:100C90008E1508F460E284E20E94CF0E1092D40315
:100CA0008093D30381110BC061E070E080E090E09D
:100CB0000E94CC0F2196A114B10449F4E7CFF801AA
:100CC000828193810E94720380FFEECF06C0AC1632
:100CD000BD06E0F68FEF9FEF59C0F8018281938146
:100CE0000E947203811123C0F801828193810E94C6
:100CF000720381111CC0F801828193810E947203EA
:100D00008F3FA9F4F801828193810E947203C82F5A
:100D1000F801828193810E9472038C0F41F4F801E3
:100D2000D481828193810E947203853D19F08DEFF9
:100D30009FEF2CC0F801828193810E94720391E0A1
:100D40009D0F9813F4CFC250FC16F0F0DA52BD2C70
:100D5000ED2CFC2CF801828193812E2D2B192C1760
:100D600038F40E947203F70181937F01D80FF2CF0C
:100D70000E9472038D0FD9F6F801828193810E943F
:100D800072038C2F90E002C08CEF9FEFDF91CF9128
:100D90001F910F91FF90EF90DF90CF90BF90AF9099
:100DA00008956F927F928F929F92AF92BF92CF924F
:100DB000DF92EF92FF920F931F93CF93DF93CDB704
:100DC000DEB72C970FB6F894DEBF0FBECDBF7C0107
:100DD0005B01742E922E832EFB018081F7018483A8
:100DE00081E08093D20384E28093D1031092D003F8
:100DF0001092CF0360E0828193810E947A0360E0C9
:100E0000F701828193810E947A036FEFF70182815B
:100E100093810E947A0311E0100F170D612FF701E3
:100E2000828193810E947A03612F6195F70182810B
:100E300093810E947A0364EDF701828193810E947D
:100E40007A036A2C650114ED8C2D8619871598F4A8
:100E50005601F6016081F701828193810E947A0335
:100E6000811102C08DEF75C0FFEFCF1ADF0AF501C7
:100E70008081180FE9CFB92CC92CD82CF7018281B9
:100E800093812C2D2B19201770F44601F6016081F7
:100E90000E947A03882331F3FFEFCF1ADF0AF401AF
:100EA0008081180FEBCF612F61950E947A0360E07B
:100EB000F701828193810E947A0361E0F7018281C8
:100EC00093810E940D0486E0E7E0F2E0DE011796D0
:100ED00001900D928A95E1F70BE010E067E084E263
:100EE0000E94CF0E1092D4038093D30381110BC0C4
:100EF00061E070E080E090E00E94CC0F01501109A9
:100F000069F78EEF26C0F701828193810E947203F8
:100F100080FFEECF8E010F5F1F4F680186E0B82E75
:100F2000B00EF701828193810E947203F6018193D2
:100F30006F01BE12F6CF46E050E0BE01695F7F4F01
:100F4000C8010E94011921E0892B09F420E0822FB9
:100F500081952C960FB6F894DEBF0FBECDBFDF9102
:100F6000CF911F910F91FF90EF90DF90CF90BF90A6
:100F7000AF909F908F907F906F9008951F920F92E7
:100F80000FB60F9211240BB60F922F933F934F93EE
:100F90005F936F937F938F939F93AF93BF93EF93E1
:100FA000FF9383EA94E00E947D02FF91EF91BF914D
:100FB000AF919F918F917F916F915F914F913F91F1
:100FC0002F910F900BBE0F900FBE0F901F90189592
:100FD0001F920F920FB60F9211240BB60F922F9300
:100FE0008F939F93EF93FF93E091B304F091B40438
:100FF0008081E091B904F091BA0482FD12C0908121
:101000008091BC048F5F8F732091BD04821751F0D3
:10101000E091BC04F0E0ED55FB4F958F8093BC044C
:1010200001C08081FF91EF919F918F912F910F903F
:101030000BBE0F900FBE0F901F9018951F920F922E
:101040000FB60F9211240BB60F922F933F934F932D
:101050005F936F937F938F939F93AF93BF93EF9320
:10106000FF938091B900887F803609F49CC068F5B1
:10107000883209F45BC090F4803109F454C038F42C
:10108000882309F4F6C0883009F44DC0F6C08831D1
:1010900009F44CC0803209F45DC0EFC0803409F41B
:1010A00068C048F4803309F455C0883309F0E5C0BE
:1010B0008093A004D8C0803509F44FC0883509F466
:1010C0005DC0883409F0D9C0D6C0883909F4C7C0DA
:1010D000A8F4883709F467C038F4883609F463C087
:1010E000803709F460C0C9C0883809F4B8C08039B5
:1010F00009F45FC0803809F0C0C05BC0803B09F4D0
:1011000086C038F4803A09F466C0883A09F47FC092
:10111000B4C0803C09F4A7C0883C09F4A4C0883B53
:1011200009F48AC0AAC080919D0410C090919F04C8
:1011300080919E04981770F5E0919F0481E08E0FD6
:1011400080939F04F0E0E458FB4F80818093BB00C4
:1011500085EC86C08093A0048EC0E0919F0481E05E
:101160008E0F80939F048091BB00F0E0E458FB4F0A
:10117000808390919F0480919E046EC0E0919F04B3
:1011800081E08E0F80939F048091BB00F0E0E458D3
:10119000FB4F80838091A10481116DC081E0809319
:1011A0009C0484EA61C083E08093A20410921F042F
:1011B000CFCF80911F04803208F051C0E0911F040E
:1011C00081E08E0F80931F048091BB00F0E0E1501E
:1011D000FC4F8083BDCF85EC8093BC001092A204AD
:1011E00080911F04803230F4E0911F04F0E0E15060
:1011F000FC4F108260911F0470E0E091FD03F091BC
:10120000FE038FEF93E0199510921F0436C084E01F
:101210008093A2041092FC031092FB03E091F90367
:10122000F091FA0319958091FB03811105C081E0CB
:101230008093FB031092D903E091FC0381E08E0FB1
:101240008093FC03F0E0E752FC4F80818093BB0069
:101250009091FC038091FB03981708F479CF85E8FF
:101260008093BC000AC085EC8093BC001092A2045D
:1012700004C01092A0040E944003FF91EF91BF911F
:10128000AF919F918F917F916F915F914F913F911E
:101290002F910F900BBE0F900FBE0F901F901895BF
:1012A0001F920F920FB60F9211240BB60F922F932D
:1012B0003F934F935F936F937F938F939F93AF93DE
:1012C000BF93EF93FF9348E251E064E271E080E066
:1012D00090E00E942B05FF91EF91BF91AF919F91FC
:1012E0008F917F916F915F914F913F912F910F90CF
:1012F0000BBE0F900FBE0F901F9018951F920F926C
:101300000FB60F9211240BB60F922F933F934F936A
:101310005F936F937F938F939F93AF93BF93EF935D
:10132000FF9348EA50E064EA70E083E090E00E94B6
:101330002B05FF91EF91BF91AF919F918F917F917D
:101340006F915F914F913F912F910F900BBE0F9036
:101350000FBE0F901F9018951F920F920FB60F920D
:1013600011240BB60F922F933F934F935F936F937C
:101370007F938F939F93AF93BF93EF93FF9348E92E
:1013800050E064E970E082E090E00E942B05FF915C
:10139000EF91BF91AF919F918F917F916F915F91ED
:1013A0004F913F912F910F900BBE0F900FBE0F905A
:1013B0001F9018951F920F920FB60F9211240BB623
:1013C0000F922F933F934F935F936F937F938F93DE
:1013D0009F93AF93BF93EF93FF9348E850E064E887
:1013E00070E081E090E00E942B05FF91EF91BF91AA
:1013F000AF919F918F917F916F915F914F913F91AD
:101400002F910F900BBE0F900FBE0F901F9018954D
:101410001F93CF93DF93EC019A01AB011B8E1A8EC1
:10142000198E188E1F8A1E8A60E079E08DE390E0A5
:101430000E943017F9012430310518F0C9010397D3
:1014400002C081E090E09D8F8C8F8C8516EF180F85
:10145000143048F09EEC980F943028F092EC980FDE
:10146000983008F080C0B9017695679564317105B0
:1014700018F06351710902C061E070E07F8B6E8BE0
:10148000369720F0B9016550710902C061E070E043
:10149000798F688FB901660F771F260F371F369532
:1014A0002795369527952D30310518F02C503109A8
:1014B00002C021E030E03B8F2A8F143060F09EECB8
:1014C000980F943040F092EC980F983008F46CC06C
:1014D000A0E0B0E06BC0A8E6B0E0E8E6F0E0908104
:1014E000143018F08E53883010F081E001C084E091
:1014F000892B8C938C8596EF980F943058F02EECB6
:10150000280F243038F022EC280F283030F020E06B
:1015100030E005C02BE630E002C02DE630E03C8B29
:101520002B8B943010F49AEF0BC0823381F083330D
:1015300081F0843381F092EC980F983070F492EC43
:10154000980F81E001C0880F9A95EAF707C088E0FC
:1015500005C084E003C082E001C081E08D8B8C8DEA
:101560009D8D0197F1F78A8D9B8D892B29F18091B3
:10157000AD039091AE038C179D07F1F0009711F029
:101580000E940F058E8D8E7F8E8F1092AB0310926E
:10159000AC03D093AE03C093AD03EB89FC8990817B
:1015A0008D89892B808308C0A8E6B0E0983008F4C4
:1015B00094CFE0E0F0E093CFDF91CF911F910895B9
:1015C0000F931F93CF93DF93EC01162F042F1B82F1
:1015D0001A8288EE93E0A0E0B0E08C839D83AE8316
:1015E000BF8381E192E0998388831F8A1E8A198EC6
:1015F000188E1B8E1A8E1D8E1C8E6E8D6E7F20FB9C
:1016000061F96E8F6695617081E06827842F0E9472
:10161000130F61E0802F0E94900F402F50E0FA01DD
:10162000EA58FC4FE491E88BFA01E05DFC4FE4914D
:10163000F0E0EE0FFF1FEA5EFC4F859194919A8BCC
:10164000898B60E0812F0E94900F8E8D81FD04C0F8
:1016500061E0812F0E94130F1C87612F70E0FB0156
:10166000EA58FC4FE491ED87FB01E05DFC4FE4910B
:10167000F0E0EE0FFF1FEE51FE4F859194919F8792
:101680008E87DF91CF911F910F9108951F920F9236
:101690000FB60F9211240BB60F922F933F934F93D7
:1016A0005F936F937F938F939F93AF93BF93EF93CA
:1016B000FF93E091AD03F091AE03309709F451C070
:1016C000968DA685B785858591FF04C09C91892359
:1016D00029F447C09C91892309F043C0A389B489A8
:1016E0009C918589809589238C9386899789019718
:1016F000F1F7608D718DA685B785558538E020E0BE
:10170000CB010197F1F7822F90E095958795282FCF
:101710004C91452309F02068315091F7868D81FD69
:1017200020958091AB0390E001968F7399273091BB
:10173000AC03381749F0A091AB03B0E0A559BC4FFA
:101740002C938093AB0303C0868D8160868F828D3E
:10175000938D0197F1F7A389B4899C918589892B91
:101760008C93FF91EF91BF91AF919F918F917F915A
:101770006F915F914F913F912F910F900BBE0F9002
:101780000FBE0F901F901895FF920F931F93CF934A
:10179000DF93CDB7DEB72C970FB6F894DEBF0FBE40
:1017A000CDBF8E010F5F1F4F9CE0F80111929A95FB
:1017B000E9F79EEE99838A8320E0042E000C550BF6
:1017C000822F90E0841795076CF4FB01E80FF91F56
:1017D0003081E3E0F0E0EC0FFD1FE80FF91F3083EC
:1017E0002F5FEECF10921806E0E0D8019E01255F32
:1017F0003F4F8D91E827F0E0E450FE4FE491A217AF
:10180000B307B9F7E0931806EB878AE08C8761E0AD
:1018100082E00E94130F8CE0F82EF00EF801619127
:101820008F0189E196E00E948204F012F7CF60E018
:1018300082E00E94130F2C960FB6F894DEBF0FBE05
:10184000CDBFDF91CF911F910F91FF900895CF935E
:10185000C0916A03CC2319F082E390E002C084E6D1
:1018600090E00E94CB0C81E08C2780936A03CF919B
:1018700008954F925F926F927F928F929F92AF9254
:10188000BF92CF92DF92EF92FF920F931F93CF936D
:101890008C01E12CF12CC0E05C0187E0A80EB11CAA
:1018A0004801EEE08E0E911C650128013701601A97
:1018B000710AC201860D971D0E941A17F2019191BB
:1018C0002F01891304C04A145B0499F718C0FEE085
:1018D000EF0EF11C3701C3010E941A17F601919116
:1018E0006F01891307C08FEF681A780AC814D904EA
:1018F00091F705C0CF5FC830B9F68FEF01C08C2FCC
:10190000CF911F910F91FF90EF90DF90CF90BF90FC
:10191000AF909F908F907F906F905F904F900895C1
:10192000E0E2F4E020E030E09191911105C0F9018E
:10193000E05EFB4F808308952E30310521F48EEF59
:1019400080932E0408952F5F3F4FEECF3FB7F8945A
:101950008091580490915904A0915A04B0915B046D
:1019600026B5A89B05C02F3F19F00196A11DB11DFA
:101970003FBFBA2FA92F982F8827820F911DA11D35
:10198000B11DBC01CD0142E0660F771F881F991F72
:101990004A95D1F70895CF92DF92EF92FF92DC0142
:1019A000A03282E0B8070CF03EC0B7FD06C0A53BF0
:1019B000B1052CF0A4EBB0E002C0A0E0B0E0809153
:1019C000AB0628E830E06901C81AD10887FDD39436
:1019D000CC0CDD1CCC0CDD1C0D2C000CEE08FF0823
:1019E0008091AC0628E532E0281B310987FD33954C
:1019F000220F331F220F331FA901330F660B770B02
:101A00009A01AB012C193D094E095F090E945A1732
:101A100024EB30E040E050E00E943017C20ED31EAD
:101A2000E41EF51ED6019091AA06903398F5809198
:101A3000AB0648E850E0481B510987FD5395440F19
:101A4000551F440F551FA417B5078CF08091AC06A5
:101A500028E532E0281B310987FD3395220F331F1B
:101A6000220F331FAD012A173B070CF4A901425086
:101A70005109440F551F2FB7F894892F90E0FC01AE
:101A8000EE0FFF1F8E0F9F1FFC01E05CFA4F528389
:101A900041832FBFFF90EF90DF90CF900895CF92BA
:101AA000DF92EF92FF920F931F93CF93DF93EC019E
:101AB0006A017B01E889F98982E080834115514EF2
:101AC00061057105B1F060E079E08DE390E0A70178
:101AD00096010E94621789019A010150110921099A
:101AE00031093695279517950795980101151041ED
:101AF000A8F0E889F989108260E874E88EE190E046
:101B0000A70196010E946217DA01C9010197A10994
:101B1000B109B695A795979587959C01EC85FD85AC
:101B20003083EE85FF852083188EEC89FD8986E061
:101B30008083EA89FB89808180618083EA89FB89CF
:101B4000808188608083EA89FB89808180688083C6
:101B5000EA89FB8980818F7D8083DF91CF911F91FE
:101B60000F91FF90EF90DF90CF900895009769F06C
:101B7000FC0101900020E9F73197AF01481B590B98
:101B8000BC0183EA94E00C948A1080E090E0089510
:101B9000CF93DF930E94B60DEC0186E293E00E94A2
:101BA000B60D8C0F9D1FDF91CF9108958F929F925C
:101BB000AF92BF920F931F93CF93DF93CDB7DEB752
:101BC000A1970FB6F894DEBF0FBECDBF19A2423069
:101BD00008F44AE08E010F5D1F4F842E912CA12C3A
:101BE000B12CA50194010E946217E62FB901CA0128
:101BF00001501109EA3014F4E05D01C0E95CD8013C
:101C0000EC93232B242B252B61F7C8010E94B60DE2
:101C1000A1960FB6F894DEBF0FBECDBFDF91CF9176
:101C20001F910F91BF90AF909F908F9008950C944B
:101C3000B60DDF92EF92FF920F931F93CF93DF9336
:101C4000EC018091F3059091F405DC01ED91FC919C
:101C500069810190F081E02D19958091F3059091B3
:101C6000F405DC01ED91FC910190F081E02D68819B
:101C700019958091F3059091F405DC01ED91FC91AB
:101C80000190F081E02D6A8119958091F305909182
:101C9000F405DC01ED91FC910190F081E02D6B8168
:101CA00019958091F3059091F405DC01ED91FC917B
:101CB0000190F081E02D6C8119958091F305909150
:101CC000F405DC01ED91FC910190F081E02D6D8136
:101CD00019958091F3059091F405DC01ED91FC914B
:101CE0000190F081E02D6E811995EF80F884B2E0CB
:101CF000EB0EF11C8091F3059091F4050F2D112747
:101D0000DC01ED91FC910190F081E02D602F19959F
:101D10008091F3059091F405DC01ED91FC91019027
:101D2000F081E02D6E2D19950E0D111D8E81080F7D
:101D3000111DD12CED2CF12C2F8138858091F305CC
:101D40009091F405DC01ED91FC91E216F30678F434
:101D5000EC0EFD1E0190F081E02DD70119966C91DB
:101D60001995F7018185080F111DD394E3CF0190D8
:101D7000F081E02D612F19958091F3059091F40584
:101D8000DC01ED91FC910190F081E02D602FDF915D
:101D9000CF911F910F91FF90EF90DF901994909148
:101DA000A2049111FCCF91E09093A2049093A1041E
:101DB0002FEF2093A00410929F04260F20939E04DF
:101DC00090939D0490919D04880F892B80939D048E
:101DD00080919C04813061F410929C0480919D0458
:101DE0008093BB008091BC0083FDF8CF85EC01C0DF
:101DF00085EE8093BC008091A2048130E1F3809154
:101E00009F04861710F460919F04ACE7B4E02CE5C2
:101E100034E0F9018E2F821B861718F48D9181937F
:101E2000F9CF862F0895362F90E0FC01E454FC4F43
:101E30004491FC01EA58FC4F2491FC01E05DFC4F09
:101E40009491992309F46BC0442309F455C050E0E0
:101E5000FA013197E231F10508F04EC08827EE58BB
:101E6000FF4F8F4F0C94B317809180008F7707C07E
:101E7000809180008F7D03C080918000877F809358
:101E800080003AC084B58F7702C084B58F7D84BD51
:101E900033C08091B0008F7703C08091B0008F7DF8
:101EA0008093B00029C0809190008F7707C0809107
:101EB00090008F7D03C080919000877F8093900079
:101EC0001BC08091A0008F7707C08091A0008F7DFC
:101ED00003C08091A000877F8093A0000DC08091F7
:101EE00020018F7707C0809120018F7D03C08091F2
:101EF0002001877F80932001E92FF0E0EE0FFF1F84
:101F0000EA5EFC4FA591B4918FB7F894EC91311132
:101F100003C020952E2301C02E2B2C938FBF089534
:101F2000CF93DF9390E0FC01EA58FC4F2491FC0131
:101F3000E05DFC4F8491882361F190E0880F991F48
:101F4000FC01E450FD4FC591D491FC01EA5EFC4FC9
:101F5000A591B491611109C09FB7F894888120952B
:101F600082238883EC912E230BC0623061F49FB7EB
:101F7000F8943881822F809583238883EC912E2BCF
:101F80002C939FBF06C08FB7F894E8812E2B28832F
:101F90008FBFDF91CF9108958F929F92AF92BF92A2
:101FA000CF92DF92EF92FF926B017C010E94A60C10
:101FB0004B015C01C114D104E104F104F1F00E9471
:101FC000A60CDC01CB0188199909AA09BB09883E36
:101FD0009340A105B10570F321E0C21AD108E108D0
:101FE000F10888EE880E83E0981EA11CB11CC11474
:101FF000D104E104F10419F7DDCFFF90EF90DF90F9
:10200000CF90BF90AF909F908F900895EF92FF92E6
:102010000F931F93CF93DF93EC01E12CF12C00E0A1
:1020200010E08091F3059091F405DC01ED91FC91B5
:102030000084F185E02D1995892B81F461E070E031
:1020400080E090E00E94CC0F2FEFE21AF20A48EEF7
:10205000E41643E0F40628F38FEF49C08091F305BE
:102060009091F405DC01ED91FC910284F385E02D63
:102070001995982F0930110548F5F8018827EC5774
:10208000FF4F8F4F0C94B3179F3E59F618829983D8
:1020900028C028813981A901492BCA0199838883E5
:1020A00081309F4EF1F020C0FE01E00FF11F9083C0
:1020B00018C09E8316C01F82988713C02F81388551
:1020C000D901A92BCD0198878F830BC0FE01E00FAA
:1020D000F11F80832F813885C801089782179307E5
:1020E00029F00F5F1F4F9DCF8EEF01C080E0DF9181
:1020F000CF911F910F91FF90EF9008952FB7F89413
:102100006091540470915504809156049091570445
:102110002FBF0895CF92DF92EF92FF920F931F93FC
:10212000CF93DF936C017A018B01C0E0D0E0CE1534
:10213000DF0589F0D8016D918D01D601ED91FC91FB
:102140000190F081E02DC6011995892B11F47E01D3
:1021500002C02196ECCFC701DF91CF911F910F9163
:10216000FF90EF90DF90CF9008951F920F920FB6DF
:102170000F9211242F933F938F939F93AF93BF930D
:102180008091540490915504A0915604B091570445
:102190003091AD0623E0230F2D3720F40196A11DC9
:1021A000B11D05C026E8230F0296A11DB11D209385
:1021B000AD068093540490935504A0935604B093B5
:1021C00057048091580490915904A0915A04B091F9
:1021D0005B040196A11DB11D80935804909359048E
:1021E000A0935A04B0935B04BF91AF919F918F91DC
:1021F0003F912F910F900FBE0F901F901895CF9386
:10220000DF93C1E1D2E0D093FA05C093F90589EFDD
:1022100095E00E940F05D0931A06C093190689E134
:1022200096E0DF91CF910C940F05CF93DF93CDB75C
:10223000DEB7C255D1090FB6F894DEBF0FBECDBFD1
:10224000789484B5826084BD84B5816084BD85B591
:10225000826085BD85B5816085BD80916E0081609D
:1022600080936E0010928100809181008260809343
:102270008100809181008160809381008091800045
:102280008160809380008091B10084608093B10070
:102290008091B00081608093B00080919100826055
:1022A0008093910080919100816080939100809152
:1022B00090008160809390008091A1008260809363
:1022C000A1008091A10081608093A1008091A00075
:1022D00081608093A0008091210182608093210120
:1022E0008091210181608093210180912001816092
:1022F0008093200180917A00846080937A0080919D
:102300007A00826080937A0080917A008160809365
:102310007A0080917A00806880937A001092C100E0
:102320008091AA06803308F052C061E08AE00E94E2
:10233000900F8091AA06E82FF0E09F01220F331F33
:10234000E20FF31FE05CFA4F9081907C9A609083DB
:102350001092AB061092AC066CE00E9493172CE032
:10236000829FB001112440E050E09A01260F371FF0
:10237000F901EE0FFF1F2E0F3F1FF901E05CFA4F2E
:10238000908196FD17C04F5F5F4F4C30510569F744
:10239000813009F02EC41092800082E08093810089
:1023A0001092850010928400B19A80916F00826033
:1023B00080936F00E091AA06F0E0CF01880F991F8B
:1023C000E80FF91FE05CFA4F80818064808340E869
:1023D00055E260E070E083EA94E00E944F0D40E82F
:1023E00055E260E070E089E196E00E94080A61E051
:1023F00082E00E94900F60E082E00E94130F8FE065
:10240000E0E2F4E0DF011D928A95E9F780E2E0E383
:10241000F4E0DF011D928A95E9F78091970690918B
:102420009806DC01ED91FC910190F081E02D199569
:102430008091970690919806DC01ED91FC910280C5
:10244000F381E02D199562E370E080E090E00E9456
:10245000CC0F82E080935706809197069091980662
:10246000DC01ED91FC910480F581E02D00E020E09D
:1024700030E041E067E576E01995811130C0809148
:10248000970690919806DC01ED91FC910680F7810A
:10249000E02D28EE33E040E467E576E0199597FDFE
:1024A0001EC08091570690E0A0E0B0E0BA2FA92F9F
:1024B000982F882720915806822BBA2FA92F982F62
:1024C000882720915906822BBA2FA92F982F882769
:1024D00020915A06822B892B8A2B8B2B31F483E790
:1024E00092E00E94170E1092000282E3809357063A
:1024F00085E0809358068FEF8093590691E0909382
:102500005A0680935B068091970690919806DC01AD
:10251000ED91FC910480F581E02D00E020E030E0B9
:1025200045E067E576E01995811110C08091970626
:1025300090919806DC01ED91FC910680F781E02DE9
:1025400028EE33E040E467E576E0199594E1909356
:10255000570681E0809358069093590680935A0657
:102560008091970690919806DC01ED91FC91048092
:10257000F581E02D00E020E030E044E067E576E022
:102580001995811110C08091970690919806DC01F1
:10259000ED91FC910680F781E02D28EE33E040E4D8
:1025A00067E576E019958BE892E00E94C80D68EE29
:1025B00073E080E090E00E94CC0F8091F70590914D
:1025C000F805009731F040E051EE60E070E00E94C5
:1025D0004F0D8091F5059091F605009731F040E0A0
:1025E00051EE60E070E00E94080A8091D70590915A
:1025F000D8052091D9053091DA05CC24C394EFEEAB
:10260000DE2EDA82C98201E00F8345E050E059876F
:1026100048871FEF1B831C831D831E8343E14A876A
:102620003B872C879D878E87FE0131967F01CF01E6
:102630000E94190EC7010E940610811157C08F8198
:10264000873009F053C08A85811150C08CE992E02F
:102650000E94C80DDA82C9820F8381E090E09987D9
:1026600088871B831C831D831E838DE18A87C70196
:102670000E94190EC7010E94061081110DC08F81A2
:10268000873051F48B8590E0982F88272C85822BFA
:102690009093D6058093D50586EB92E00E94170EA5
:1026A0006091D5057091D60580E090E04AE00E94E7
:1026B000D60D87EC92E00E94C80D82ED92E00E9458
:1026C000C80D8EEE92E00E94C80D6E01FAE4CF0EA6
:1026D000D11C5E012BE0A20EB11C57E0852E8C0CA4
:1026E00080E294E06FE0962E980E79C08FEF92E032
:1026F0000E94C80D61E070E080E090E00E94CC0F85
:10270000F9CF87E0D7011D928A95E9F78AE4809393
:10271000570681E0809358061092590680919706DB
:1027200090919806DC01ED91FC910480F581E02DFB
:1027300000E020E030E043E067E576E0199588238B
:1027400009F453C0662463944FEE742E7A82698232
:1027500001E00F8381E090E0998788871FEF1B835A
:102760001C831D831E830A87C7010E94190EC7019F
:102770000E940610882309F45EC089E493E00E9459
:10278000C80D89E196E00E94D604892B09F0DBC0D0
:1027900083EA94E00E946702892B09F0E4C140902B
:1027A00050045090510460905204709053040E9461
:1027B0007E10461657066806790609F401C20E9483
:1027C0007E10461A570A680A790AFDED4F16F5E0A1
:1027D0005F066104710408F001C20E940703809142
:1027E0000002882309F4AECF8CCF80919706909198
:1027F0009806DC01ED91FC910680F781E02D2AE03E
:1028000030E040E467E576E0199597FD9BCF809135
:102810005706813009F096CF70905C06ADE5B6E0C2
:102820008701F7016E2C8E2F8E19871508F00DC2C7
:102830008D918193F8CF8F81873009F09ECF8A8563
:1028400081119BCF7A8269820F8382E090E0998721
:1028500088871B831C831D831E838A870B87C70180
:102860000E94190EC7010E940610811186CF8F8128
:10287000873009F082CF8A8581117FCF86E0EFE132
:10288000F2E0D60101900D928A95E1F77A82698291
:102890000F8386E090E0998788871B831C831D83C4
:1028A0001E83F601DE011A9601900D928A95E1F7DA
:1028B000C7010E94190EC7010E94061081115DCF49
:1028C0008F81873009F059CF8B8590E0982F88272A
:1028D0002C85822B9093D2058093D1058D8590E035
:1028E000982F88272E85822B9093D4058093D3052B
:1028F0008A85811142CF89E293E00E94170E609190
:10290000D1057091D20580E090E04AE00E94D60D9A
:1029100084E393E00E94170E6091D3057091D40573
:1029200080E090E04AE00E94D60D86E293E00E94AB
:10293000B60D8091D1059091D205019609F41DCF75
:102940000E94270C1ACF64E170E080E090E00E94C2
:10295000CC0F89E196E00E94D6040C9709F0F7C0ED
:10296000870127018CE0782E7E0C89E196E00E9499
:10297000EE04F20181932F017E12F7CFD8016D9101
:102980008D0170E080E090E040E10E94D60D8BE583
:1029900093E00E94170E7012F1CF86E293E00E943E
:1029A000B60D8C858A3009F0F3CE8981813009F02B
:1029B000EFCE10921806312CD701ED913E26E32D73
:1029C000F0E0E450FE4F3490AA15BB05B1F7309209
:1029D00018068B853812DCCE8A818D3C79F48B8188
:1029E000883008F0D5CE811102C00E94270CC701A3
:1029F0000E9464188AE2F6018083A2C08A3DC9F56C
:102A00008B818A3251F088E0D6011D928A95E9F7D0
:102A1000E0E2F4E090E080E012C080912F0488238F
:102A200091F3E0E2F4E09081911104C031969E129E
:102A3000FACFE9CF815010828111F8CFE4CF2191F4
:102A4000222389F0883078F4D601A80FB11D1196A1
:102A50002C938F5F9F5F873030F090932F0481E03D
:102A6000F601808304C09E12EACF90932F0448E0C1
:102A700068C0823A09F040C00B81102F1770CE0158
:102A800004963C01F601DC018D9181938E12FCCFFE
:102A9000C6010E94390C8F3F31F090E0212F30E0C9
:102AA0008217930701F5001F0027001F8EE0189F73
:102AB000102D112497E0099F100D1124412C512C49
:102AC000012F10E0D3016D913D01C201800F911FD4
:102AD0000E942217BFEF4B1A5B0AE7E04E16510423
:102AE00089F78AE201C08EEF63968FAF639741E06A
:102AF000BE016E5A7F4F26C0833A09F049CE0B8142
:102B0000802F881F8827881F07709EE0099F002D4F
:102B1000112497E0899F000D1124612C712C10E085
:102B200060E0C301800F911F0E942217FFEF6F1A10
:102B30007F0A27E06216710499F78AE2D6018C9326
:102B400041E0B601832D90E00E94C40B21CE89E1C3
:102B500096E00E94D604892B09F41ACE89E196E00A
:102B60000E94EE04F4CF83EA94E00E944502853689
:102B700009F015CE412C512C32014AE0C301B201BB
:102B80000E94D60D8AE593E00E94170EC2010E94B2
:102B90001A17682F70E080E090E04AE00E94D60D9E
:102BA00086E293E00E94B60DBFEF4B1A5B0A6B0AF8
:102BB0007B0AE2E34E16510461047104F1F6EFCD95
:102BC0000E947E10DC01CB0184199509A609B70982
:102BD0008D3D9540A105B10508F4FFCD0E947E1002
:102BE0006093500470935104809352049093530463
:102BF000F4CD823061F41092900080939100109295
:102C000095001092940088BB80937100D3CB8330E1
:102C100069F41092A00082E08093A1001092A500B8
:102C20001092A40089BB80937200C4CB8111C2CBE7
:102C30001092200182E080932101109225011092D0
:102C400024018ABB80937300B5CB8DE593E00E948D
:102C5000170E802F8619871570F482E293E00E9488
:102C6000170EF80161918F0170E080E090E040E183
:102C70000E94D60DEECF88E293E00E94C80DC701F6
:102C80000E94390C182F682F70E080E090E04AE035
:102C90000E94D60D86E293E00E94B60D1830A0F493
:102CA000111102C00E94270C812F80610E94900C9C
:102CB0000E947E1024E0129FF0011124E05DFB4F82
:102CC00060837183828393830E94270C3BCD109293
:102CD000A6041092A50488EE93E0A0E0B0E08093F3
:102CE000A7049093A804A093A904B093AA0429E28E
:102CF00032E03093A4042093A30425EC30E0309319
:102D0000B0042093AF0424EC30E03093B20420935D
:102D1000B10420EC30E03093B4042093B30421ECF0
:102D200030E03093B6042093B50422EC30E03093C9
:102D3000B8042093B70426EC30E03093BA04209313
:102D4000B9041092BC041092BD041092BE041092FB
:102D5000BF0410929C0610929B0680939D06909350
:102D60009E06A0939F06B093A0068BE392E09093FB
:102D70009A06809399068091D0058033A0F491E063
:102D8000980F9093D0058093AA0690E0FC01EE0F77
:102D9000FF1F8E0F9F1FFC01E05CFA4F88EB9BE04A
:102DA0009283818303C08FEF8093AA068BE692E023
:102DB0009093A6068093A50689E996E09093A806CD
:102DC0008093A7061092A90685EA96E0909398064C
:102DD0008093970620E047E066E089E196E00E9454
:102DE000E00A20E04BE06CE089EF95E00E94E00A09
:102DF0001092D7051092D8051092D9051092DA05D5
:102E00008FEF9FEFDC018093DB059093DC05A093AF
:102E1000DD05B093DE051092F8051092F70589EFF5
:102E200095E09093F6058093F5059093F4058093D3
:102E3000F3050895F999FECF92BD81BDF89A9927BF
:102E400080B50895262FF999FECF1FBA92BD81BD96
:102E500020BD0FB6F894FA9AF99A0FBE019608951C
:102E6000052E97FB1EF400940E94471757FD07D0CC
:102E70000E94621707FC03D04EF40C94471750953C
:102E80004095309521953F4F4F4F5F4F0895909556
:102E90008095709561957F4F8F4F9F4F08950E9449
:102EA0008417A59F900DB49F900DA49F800D911D38
:102EB00011240895B7FF0C944F170E944F17821BDF
:102EC000930B0895A1E21A2EAA1BBB1BFD010DC096
:102ED000AA1FBB1FEE1FFF1FA217B307E407F507CA
:102EE00020F0A21BB30BE40BF50B661F771F881FA6
:102EF000991F1A9469F760957095809590959B013C
:102F0000AC01BD01CF010895A29FB001B39FC001E4
:102F1000A39F700D811D1124911DB29F700D811D05
:102F20001124911D0895991B79E004C0991F9617EB
:102F300008F0961B881F7A95C9F78095089597FB2E
:102F4000072E16F4009407D077FD09D00E94BB1716
:102F500007FC05D03EF4909581959F4F089570959C
:102F600061957F4F0895EE0FFF1F881F8BBF07905D
:102F7000F691E02D1994AA1BBB1B51E107C0AA1FB3
:102F8000BB1FA617B70710F0A61BB70B881F991F0A
:102F90005A95A9F780959095BC01CD010895CF93DE
:102FA000DF938230910510F482E090E0E091B0066A
:102FB000F091B10620E030E0C0E0D0E0309711F1B0
:102FC0004081518148175907C0F04817590761F4EB
:102FD00082819381209719F09B838A832BC09093E1
:102FE000B1068093B00626C02115310519F04217AD
:102FF000530718F49A01BE01DF01EF010280F3814B
:10300000E02DDCCF2115310509F1281B390B2430C7
:10301000310590F412968D919C911397611571056D
:1030200021F0FB019383828304C09093B1068093C7
:10303000B006FD01329644C0FD01E20FF31F8193FB
:103040009193225031092D933C933AC02091AE06C2
:103050003091AF06232B41F42091030230910402FA
:103060003093AF062093AE06209101023091020208
:103070002115310541F42DB73EB74091050250911D
:103080000602241B350BE091AE06F091AF06E21765
:10309000F307A0F42E1B3F0B2817390778F0AC017B
:1030A0004E5F5F4F2417350748F04E0F5F1F509358
:1030B000AF064093AE068193919302C0E0E0F0E04A
:1030C000CF01DF91CF9108950F931F93CF93DF939B
:1030D000009709F48CC0FC01329713821282009190
:1030E000B0061091B1060115110581F420813181DE
:1030F000820F931F2091AE063091AF062817390733
:1031000079F5F093AF06E093AE0671C0D80140E0C8
:1031100050E0AE17BF0750F412962D913C911397D3
:10312000AD012115310509F1D901F3CF9D01DA0176
:103130003383228360817181860F971F82179307E3
:1031400069F4EC0128813981260F371F2E5F3F4F2C
:10315000318320838A819B8193838283452B29F449
:10316000F093B106E093B00642C01396FC93EE9341
:103170001297ED01499159919E01240F351FE217D5
:10318000F30771F480819181840F951F0296119647
:103190009C938E938281938113969C938E93129726
:1031A000E0E0F0E0D80112968D919C911397009782
:1031B00019F0F8018C01F6CF8D919C9198012E5F4A
:1031C0003F4F820F931F2091AE063091AF06281714
:1031D000390769F4309729F41092B1061092B006BD
:1031E00002C0138212821093AF060093AE06DF91E5
:1031F000CF911F910F91089581E090E0F8940C9485
:103200000E19FB01DC0104C08D910190801921F49D
:1032100041505040C8F7881B990B089512E0C2E056
:10322000D2E000E006C0802FFE010E94B317219675
:10323000011DC330D10780E00807A9F7F894FFCF3C
:10324000010000B20680000000FF00FF0000000047
:103250000082048A1026058104D604EE0469041B4A
:1032600001000000A3000000009E028A103602E563
:103270000267024502590200000000DE03AE032689
:10328000058203A603920383030000000029058A38
:103290001026052505290529052905000000002916
:1032A000058A102605250500000000F2051806D144
:1032B0000632064469646E27742066696E64205085
:1032C0004E35333220626F617264005761697469F0
:1032D0006E6720666F72206361726400466F756E60
:1032E000642066696E6765727072696E74207365BA
:1032F0006E736F72210053656E736F7220636F6E11
:103300007461696E7320002074656D706C61746502
:10331000730057616974696E6720666F7220766109
:103320006C69642066696E6765722E2E2E006D735F
:103330002074696D657220737461727465640044F1
:103340006964206E6F742066696E642066696E67BA
:1033500065727072696E742073656E736F72203A55
:103360002800203078000D0A00466F756E642049F1
:1033700044202300207769746820636F6E66696457
:10338000656E6365206F662000636865636B696EB8
:10339000672073656E736F72730020200055494477
:0A33A0002056616C75653A200000AC
:00000001FF
