:100000000C946B010C949C010C949C010C949C012D
:100010000C949C010C949C010C949C010C949C01EC
:100020000C949C010C94D2060C94D2060C94D2062B
:100030000C949C010C949C010C949C010C949C01CC
:100040000C949C010C949C010C949C010C949C01BC
:100050000C949C010C949C010C949C010C9428061B
:100060000C949C010C949C060C9472060C949C01BC
:100070000C949C010C949C010C949C010C949C018C
:100080000C949C010C949C010C949C010C949C017C
:100090000C949C010C949C010C949C010C949C016C
:1000A0000C949C010C949C010C949C010C949C015C
:1000B0000C949C010C949C010C949C010C949C014C
:1000C0000C949C010C949C010C949C010C949C013C
:1000D0000C949C010C949C010C949C010C949C012C
:1000E0000C949C01EA02ED02DC02E002E40224032B
:1000F000F102F502FB02FF02030309030D031103E2
:10010000240317031B031F03D503DA03E503E503E9
:10011000E503E503EA03EC03EF030C941E0A0C94D9
:1001200049040C9417030C9444050C94FB020C94A2
:100130006B040C9409030C941F030C945D040C9441
:10014000E0020C94E4020C940F040C940D030C9444
:10015000EC030C94A2040C9450070C94EF030C9441
:100160005D050C94EA030C9411030C94E9040C94BF
:100170001B030C9424030C94DC020C94B1050C9426
:10018000EA020C94F1020C94C9050C9403030C943C
:10019000D5030C94E5030C94FF020C943A040C94E0
:1001A00001060C94ED020C94DA030C945C050C949B
:1001B000F50200000A0B02090C0D0E0807030401EA
:1001C000000000000000000000000000000000002F
:1001D00000000000000000000000000000001211FC
:1001E00010000000000000000000000000000000FF
:1001F0000000000000000000000022002500280090
:100200002B002E003100340002010000050108011E
:100210000B0100002100240027002A002D003000DF
:10022000330001010000040107010A010000200061
:100230002300260029002C002F00320000010000BE
:100240000301060109010505050507050808080859
:10025000020202020A0A080804040404010101015E
:100260000101010103030303030303030407070759
:100270000C0C0C0C0C0C0C0C0202020206060606FE
:10028000060606060B0B0B0B0B0B0B0B01021020CB
:1002900020080810204010204080020102010804BC
:1002A0000201010204081020408080402010080450
:1002B00002018004020180402010080402010804A9
:1002C00002010102040810204080010204081020ED
:1002D000408050071E0A11241FBECFEFD1E2DEBFBF
:1002E000CDBF00E00CBF12E0A0E0B2E0E2E2F5E139
:1002F00000E00BBF02C007900D92AE3BB107D9F7EB
:1003000023E0AEEBB2E001C01D92AF3EB207E1F7D1
:1003100011E0CAE6D1E000E006C021970109802F74
:10032000FE010E945E0AC936D10780E00807A9F7DE
:100330000E9453080C947F0A0C940000CF92DF9225
:10034000EF92FF920F931F93CF93DF93EC016A011B
:100350007B01E889F98982E080834115514E61056E
:100360007105B1F060E079E08DE390E0A7019601BE
:100370000E943C0A89019A010150110921093109A1
:100380003695279517950795980101151041A8F006
:10039000E889F989108260E874E88EE190E0A701AD
:1003A00096010E943C0ADA01C9010197A109B1092D
:1003B000B695A795979587959C01EC85FD8530832B
:1003C000EE85FF852083188EEC89FD8986E0808389
:1003D000EA89FB89808180618083EA89FB89808149
:1003E00088608083EA89FB89808180688083EA89CC
:1003F000FB8980818F7D8083DF91CF911F910F9149
:10040000FF90EF90DF90CF900895DF92EF92FF92F0
:100410000F931F93CF93DF93EC018091CA039091C8
:10042000CB03DC01ED91FC9169810190F081E02D1D
:1004300019958091CA039091CB03DC01ED91FC9159
:100440000190F081E02D688119958091CA03909107
:10045000CB03DC01ED91FC910190F081E02D6A81EC
:1004600019958091CA039091CB03DC01ED91FC9129
:100470000190F081E02D6B8119958091CA039091D4
:10048000CB03DC01ED91FC910190F081E02D6C81BA
:1004900019958091CA039091CB03DC01ED91FC91F9
:1004A0000190F081E02D6D8119958091CA039091A2
:1004B000CB03DC01ED91FC910190F081E02D6E8188
:1004C0001995EF80F884B2E0EB0EF11C8091CA031D
:1004D0009091CB030F2D1127DC01ED91FC91019040
:1004E000F081E02D602F19958091CA039091CB0384
:1004F000DC01ED91FC910190F081E02D6E2D1995BC
:100500000E0D111D8E81080F111DD12CED2CF12C1B
:100510002F8138858091CA039091CB03DC01ED9146
:10052000FC91E216F30678F4EC0EFD1E0190F081CA
:10053000E02DD70119966C911995F7018185080F67
:10054000111DD394E3CF0190F081E02D612F199517
:100550008091CA039091CB03DC01ED91FC91019055
:10056000F081E02D602FDF91CF911F910F91FF90CF
:10057000EF90DF901994362F90E0FC01EE54FE4F7F
:100580004491FC01E457FD4F2491FC01EA5BFD4FCF
:100590009491992309F46BC0442309F455C050E0A9
:1005A000FA013197E231F10508F04EC08827EE5884
:1005B000FF4F8F4F0C945E0A809180008F7707C0A9
:1005C000809180008F7D03C080918000877F809321
:1005D00080003AC084B58F7702C084B58F7D84BD1A
:1005E00033C08091B0008F7703C08091B0008F7DC1
:1005F0008093B00029C0809190008F7707C08091D0
:1006000090008F7D03C080919000877F8093900041
:100610001BC08091A0008F7707C08091A0008F7DC4
:1006200003C08091A000877F8093A0000DC08091BF
:1006300020018F7707C0809120018F7D03C08091BA
:100640002001877F80932001E92FF0E0EE0FFF1F4C
:10065000E850FE4FA591B4918FB7F894EC91311109
:1006600003C020952E2301C02E2B2C938FBF0895FD
:100670003FB7F8948091070390910803A091090374
:10068000B0910A0326B5A89B05C02F3F19F001962B
:10069000A11DB11D3FBFBA2FA92F982F8827820F08
:1006A000911DA11DB11DBC01CD0142E0660F771F58
:1006B000881F991F4A95D1F708958F929F92AF9204
:1006C000BF92CF92DF92EF92FF926B017C010E946A
:1006D00038034B015C01C114D104E104F104F1F0D1
:1006E0000E943803DC01CB0188199909AA09BB09CA
:1006F000883E9340A105B10570F321E0C21AD108EC
:10070000E108F10888EE880E83E0981EA11CB11C58
:10071000C114D104E104F10419F7DDCFFF90EF908B
:10072000DF90CF90BF90AF909F908F900895EF9201
:10073000FF920F931F93CF93DF93EC01E12CF12CE9
:1007400000E010E08091CA039091CB03DC01ED91B1
:10075000FC910084F185E02D1995892B81F461E0ED
:1007600070E080E090E00E945D032FEFE21AF20A51
:1007700048EEE41643E0F40628F38FEF49C0809179
:10078000CA039091CB03DC01ED91FC910284F385C7
:10079000E02D1995982F0930110548F5F8018827A3
:1007A000EC57FF4F8F4F0C945E0A9F3E59F618820C
:1007B000998328C028813981A901492BCA019983CD
:1007C000888381309F4EF1F020C0FE01E00FF11FC1
:1007D000908318C09E8316C01F82988713C02F81F4
:1007E0003885D901A92BCD0198878F830BC0FE01D5
:1007F000E00FF11F80832F813885C8010897821789
:10080000930729F00F5F1F4F9DCF8EEF01C080E04F
:10081000DF91CF911F910F91FF90EF900895CF92AC
:10082000DF92EF92FF920F931F93CF93DF936C01B0
:100830007A018B01C0E0D0E0CE15DF0589F0D80148
:100840006D918D01D601ED91FC910190F081E02D2B
:10085000C6011995892B11F47E0102C02196ECCFB7
:10086000C701DF91CF911F910F91FF90EF90DF9023
:10087000CF900895FC01538D448D252F30E0842FB7
:1008800090E0821B930B541710F0CF9608950197B8
:100890000895FC01918D828D981761F0828DDF01A2
:1008A000A80FB11D5D968C91928D9F5F9F73928F63
:1008B00090E008958FEF9FEF0895FC01918D828D58
:1008C000981731F0828DE80FF11D858D90E0089525
:1008D0008FEF9FEF0895FC01918D228D892F90E07D
:1008E000805C9F4F821B91098F73992708958BE03D
:1008F00093E00E946B0421E0892B09F420E0822F11
:100900000895FC01848DDF01A80FB11DA35ABF4FCC
:100910002C91848D90E001968F739927848FA689FE
:10092000B7892C93A089B1898C9180648C93938D25
:10093000848D981306C00288F389E02D80818F7D15
:1009400080830895EF92FF920F931F93CF93DF93CD
:10095000EC0181E0888F9B8D8C8D981305C0E88910
:10096000F989808185FD24C0F62E0B8D10E00F5F84
:100970001F4F0F731127E02E8C8DE8120CC00FB69D
:1009800007FCFACFE889F989808185FFF5CFCE0190
:100990000E948104F1CF8B8DFE01E80FF11DE35A17
:1009A000FF4FF0820B8FEA89FB898081806207C04C
:1009B000EE89FF896083E889F9898081806480837A
:1009C00081E090E0DF91CF911F910F91FF90EF9028
:1009D0000895CF93DF93EC01888D8823C9F0EA89CD
:1009E000FB89808185FD05C0A889B9898C9186FD28
:1009F0000FC00FB607FCF5CF808185FFF2CFA88925
:100A0000B9898C9185FFEDCFCE010E948104E7CF9B
:100A1000DF91CF91089580E090E0892B21F00E9432
:100A20007704811125C080E090E0892B41F080E0BF
:100A300090E0892B21F00E94000081111CC080E011
:100A400090E0892B41F080E090E0892B21F00E941A
:100A50000000811113C080E090E0892BA1F080E0BC
:100A600090E0892B81F00E94000081110AC0089556
:100A70000E940000D8CF0E940000E1CF0E94000039
:100A8000EACF0C94000008952091000330910103F7
:100A90002817390771F49091FE028091FF02981790
:100AA00041F0E091FE02F0E0E254FD4F808190E0E1
:100AB00008958FEF9FEF089508951F93CF93DF93CD
:100AC000DC015C962D913C915D972115310539F43F
:100AD00081E090E013969C938E9312973DC05196BF
:100AE000ED91FC91529750969C915097892F80954B
:100AF0001FB75E964C915E9741FB772770F941FDD9
:100B00006095F8944081772311F0492B01C0482368
:100B10004083E9012197F1F748E0508160FF02C06E
:100B2000592B01C058235083E9012197F1F76695AD
:100B3000415099F7772321F090818923808303C066
:100B40008081982B90831FBF5C968D919C915D97BF
:100B50000197F1F721E030E0C901DF91CF911F91BA
:100B6000089520910003309101032817390771F48B
:100B70008091FF022091FE0290E0805C9F4F821BDB
:100B8000910960E470E00E94280A089580E090E0F6
:100B90000895209100033091010328173907B9F413
:100BA0009091FE028091FF02981789F0E091FE0279
:100BB000F0E0E254FD4F80812091FE0230E02F5F93
:100BC0003F4F2F7333272093FE0290E008958FEF5D
:100BD0009FEF0895E0910003F0910103E817F907F2
:100BE00069F4A389B4899C918589809589238C9324
:100BF000109201031092000381E0089580E00895AF
:100C0000089580E090E00895CF93DF93009779F006
:100C1000FC0101900020E9F73197AF01481B590B07
:100C2000BC018BE093E00E940F04EC0102C0C0E025
:100C3000D0E042E050E064E272E08BE093E00E949A
:100C40000F048C0F9D1FDF91CF9108950E947A0AA7
:100C50001F920F920FB60F9211242F933F938F93F1
:100C60009F93AF93BF938091030390910403A0914E
:100C70000503B09106033091020323E0230F2D37C3
:100C800020F40196A11DB11D05C026E8230F029690
:100C9000A11DB11D209302038093030390930403CD
:100CA000A0930503B0930603809107039091080376
:100CB000A0910903B0910A030196A11DB11D809373
:100CC000070390930803A0930903B0930A03BF910D
:100CD000AF919F918F913F912F910F900FBE0F90E9
:100CE0001F9018951F920F920FB60F9211240BB6FA
:100CF0000F922F933F934F935F936F937F938F93B5
:100D00009F93AF93BF93EF93FF938BE093E00E9489
:100D10008104FF91EF91BF91AF919F918F917F914E
:100D20006F915F914F913F912F910F900BBE0F905C
:100D30000FBE0F901F9018951F920F920FB60F9233
:100D400011240BB60F922F938F939F93EF93FF93E2
:100D5000E0911B03F0911C038081E0912103F0914D
:100D6000220382FD12C09081809124038F5F8F73D4
:100D700020912503821751F0E0912403F0E0E55F14
:100D8000FC4F958F8093240301C08081FF91EF91E8
:100D90009F918F912F910F900BBE0F900FBE0F90D0
:100DA0001F9018951F920F920FB60F9211240BB639
:100DB0000F922F933F934F935F936F937F938F93F4
:100DC0009F93AF93BF93EF93FF93E0910003F09154
:100DD0000103309709F451C0968DA685B7858585A6
:100DE00091FF04C09C91892329F447C09C918923D9
:100DF00009F043C0A389B4899C9185898095892392
:100E00008C93868997890197F1F7608D718DA685FE
:100E1000B785558538E020E0CB010197F1F7822FA7
:100E200090E095958795282F4C91452309F02068EF
:100E3000315091F7868D81FD20958091FF0290E0E1
:100E400001968F7399273091FE02381749F0A091CF
:100E5000FF02B0E0A254BD4F2C938093FF0203C069
:100E6000868D8160868F828D938D0197F1F7A3899E
:100E7000B4899C918589892B8C93FF91EF91BF91C7
:100E8000AF919F918F917F916F915F914F913F9122
:100E90002F910F900BBE0F900FBE0F901F901895C3
:100EA000CF93DF9310920E0310920D0388EE93E020
:100EB000A0E0B0E080930F0390931003A093110380
:100EC000B093120324E032E030930C0320930B0321
:100ED00025EC30E0309318032093170324EC30E026
:100EE00030931A032093190320EC30E030931C0355
:100EF00020931B0321EC30E030931E0320931D034D
:100F000022EC30E03093200320931F0326EC30E0E6
:100F1000309322032093210310922403109225037F
:100F200010922603109227031092D3031092D2033B
:100F30008093D4039093D503A093D603B093D703A3
:100F400086E192E09093D1038093D0031092E7035F
:100F50001092E6031092E9031092E8031092EB035B
:100F60001092EA031092ED031092EC036091EE03ED
:100F70006E7F6D7F6093EE036695617081E06827F8
:100F80008AE00E94BB02E6E9F2E02491E0E5F2E0AB
:100F90008491882399F090E0880F991FFC01EE5E00
:100FA000FD4FA591B491FC01E850FE4F85919491BD
:100FB0008FB7F894EC91E22BEC938FBFE6E9F2E067
:100FC000E491E093E003E0E5F2E0E491F0E0EE0F7D
:100FD000FF1FE850FE4F859194919093E203809318
:100FE000E103E7E9F2E02491E1E5F2E0849188236E
:100FF000C1F090E0880F991FFC01EE5EFD4FC59196
:10100000D491FC01E850FE4FA591B4919FB7F8949C
:101010008881E22FE0958E2388838C91E823EC93DE
:101020009FBF8091EE0381FD04C061E08BE00E94D0
:10103000BB0280ED93E02BE02093DC03E7E9F2E0D4
:10104000E491E093DD03E1E5F2E0E491F0E0EE0FFE
:10105000FF1FE45DFD4F259134913093DF03209312
:10106000DE031092AE031092AF031092B003109201
:10107000B1034FEF5FEFBA014093B2035093B30354
:101080006093B4037093B5031092CF031092CE0314
:101090009093CD038093CC039093CB038093CA03AA
:1010A000DF91CF910895CF93DF93CDB7DEB7C954C9
:1010B000D1090FB6F894DEBF0FBECDBF789484B5CA
:1010C000826084BD84B5816084BD85B5826085BD44
:1010D00085B5816085BD80916E00816080936E00D2
:1010E00010928100809181008260809381008091C4
:1010F0008100816080938100809180008160809375
:1011000080008091B10084608093B1008091B00034
:1011100081608093B0008091910082608093910003
:101120008091910081608093910080919000816016
:10113000809390008091A10082608093A1008091B3
:10114000A10081608093A1008091A00081608093C4
:10115000A000809121018260809321018091210172
:101160008160809321018091200181608093200122
:1011700080917A00846080937A0080917A00826006
:1011800080937A0080917A00816080937A008091C8
:101190007A00806880937A001092C10040E855E29E
:1011A00060E070E08BE093E00E949E0164E670E0F6
:1011B00080E090E00E945D0387E292E00E940406D6
:1011C0008DE492E00E9404068BE093E00E946B04A1
:1011D000892BD1F38BE093E00E9449048935910576
:1011E00099F768EE73E080E090E00E945D038091E3
:1011F000CE039091CF03009731F040E051EE60E0D4
:1012000070E00E949E010091CC031091CD03011566
:10121000110509F4B6C0D8015B961C921E925A972C
:1012200059961C921E92589757961C921E9256974A
:1012300082E490E05D969C938E935C971C968C91D3
:1012400096EF980F943048F02EEC280F243028F0B9
:1012500022EC280F283008F06BC02FE030E0F801B6
:10126000378B268B20E430E0318F208F27E230E06F
:10127000338F228F943060F02EEC280F243040F012
:1012800022EC280F283008F4D1C0A0E0B0E0D0C094
:10129000A8E6B0E0E8E6F0E02081943018F08E5344
:1012A000883010F081E001C084E0822B8C93D8015B
:1012B0001C968C9196EF980F943058F02EEC280FD6
:1012C000243038F022EC280F283030F020E030E0D5
:1012D00005C02BE630E002C02DE630E0F801348B8B
:1012E000238B943010F49AEF0BC0823381F0833358
:1012F00081F0843381F092EC980F983070F492EC86
:10130000980F81E001C0880F9A95EAF707C088E03E
:1013100005C084E003C082E001C081E0D801559699
:101320008C9355975C968D919C915D970197F1F701
:10133000F801828D938D892B21F18091000390918A
:10134000010380179107E9F0009711F00E94EA0568
:10135000D8015E968C915E978E7F5E968C935E9799
:101360001092FF021092FE021093010300930003FB
:101370005396ED91FC915497908155968C91892BC1
:1013800080838091AE039091AF032091B0033091A0
:10139000B103EE24E3944FEEF42EFA82E98201E0E9
:1013A0000F8345E050E0598748871FEF1B831C835C
:1013B0001D831E8343E14A873B872C879D878E8749
:1013C000CE0101960E940502CE0101960E9497036C
:1013D000811124C08F81873009F58A8581111EC053
:1013E00087E692E00E940406FA82E9820F8381E098
:1013F00090E0998788871B831C831D831E838DE063
:101400008A87CE0101960E940502CE0101960E94B4
:10141000970381E892E00E94040605C08AE992E001
:101420000E940406FFCF0E940B05FDCFA8E6B0E0A6
:10143000283008F42FCFE0E0F0E02ECF86E192E0F4
:101440009093D1038093D00380ED93E00C94EA0550
:1014500097FB072E16F4009407D077FD09D00E9461
:10146000660A07FC05D03EF4909581959F4F08953C
:10147000709561957F4F0895A1E21A2EAA1BBB1BA0
:10148000FD010DC0AA1FBB1FEE1FFF1FA217B30750
:10149000E407F50720F0A21BB30BE40BF50B661F66
:1014A000771F881F991F1A9469F76095709580952A
:1014B00090959B01AC01BD01CF010895EE0FFF1F78
:1014C000881F8BBF0790F691E02D1994AA1BBB1BB8
:1014D00051E107C0AA1FBB1FA617B70710F0A61B34
:1014E000B70B881F991F5A95A9F780959095BC0155
:1014F000CD01089581E090E0F8940C947F0A11E00A
:10150000CAE6D1E000E006C0802FFE010E945E0A1C
:101510002196011DCB36D10780E00807A9F7F89482
:02152000FFCFFB
:1015220000000000A2040F043A04E9046B04490419
:101532005D04000000005D050F0401065C05B105B5
:10154200C90544050D0A000A0A44656C6574696E92
:101552006720616C6C2066696E6765727072696E75
:10156200742074656D706C617465732100507265CE
:10157200737320275927206B657920746F20636F5E
:101582006E74696E756500466F756E642066696E6D
:101592006765727072696E742073656E736F722103
:1015A200004E6F77206461746162617365206973B4
:1015B20020656D707479203A2900446964206E6F49
:1015C200742066696E642066696E676572707269FE
:0E15D2006E742073656E736F72203A280000ED
:00000001FF
